Component: ARM Compiler 5.06 update 7 (build 960) Tool: armlink [4d3601]

==============================================================================

Section Cross References

    startup_stm32f103xe.o(RESET) refers to startup_stm32f103xe.o(STACK) for __initial_sp
    startup_stm32f103xe.o(RESET) refers to startup_stm32f103xe.o(.text) for Reset_Handler
    startup_stm32f103xe.o(RESET) refers to stm32f1xx_it.o(i.NMI_Handler) for NMI_Handler
    startup_stm32f103xe.o(RESET) refers to stm32f1xx_it.o(i.HardFault_Handler) for HardFault_Handler
    startup_stm32f103xe.o(RESET) refers to stm32f1xx_it.o(i.MemManage_Handler) for MemManage_Handler
    startup_stm32f103xe.o(RESET) refers to stm32f1xx_it.o(i.BusFault_Handler) for BusFault_Handler
    startup_stm32f103xe.o(RESET) refers to stm32f1xx_it.o(i.UsageFault_Handler) for UsageFault_Handler
    startup_stm32f103xe.o(RESET) refers to port.o(.emb_text) for SVC_Handler
    startup_stm32f103xe.o(RESET) refers to stm32f1xx_it.o(i.DebugMon_Handler) for DebugMon_Handler
    startup_stm32f103xe.o(RESET) refers to port.o(i.SysTick_Handler) for SysTick_Handler
    startup_stm32f103xe.o(RESET) refers to stm32f1xx_it.o(i.DMA1_Channel1_IRQHandler) for DMA1_Channel1_IRQHandler
    startup_stm32f103xe.o(RESET) refers to stm32f1xx_it.o(i.DMA1_Channel4_IRQHandler) for DMA1_Channel4_IRQHandler
    startup_stm32f103xe.o(RESET) refers to stm32f1xx_it.o(i.DMA1_Channel5_IRQHandler) for DMA1_Channel5_IRQHandler
    startup_stm32f103xe.o(RESET) refers to stm32f1xx_it.o(i.EXTI9_5_IRQHandler) for EXTI9_5_IRQHandler
    startup_stm32f103xe.o(RESET) refers to stm32f1xx_it.o(i.TIM1_UP_IRQHandler) for TIM1_UP_IRQHandler
    startup_stm32f103xe.o(RESET) refers to stm32f1xx_it.o(i.USART1_IRQHandler) for USART1_IRQHandler
    startup_stm32f103xe.o(RESET) refers to stm32f1xx_it.o(i.EXTI15_10_IRQHandler) for EXTI15_10_IRQHandler
    startup_stm32f103xe.o(RESET) refers to stm32f1xx_it.o(i.TIM6_IRQHandler) for TIM6_IRQHandler
==============================================================================

Removing Unused input sections from the image.

    Removing startup_stm32f103xe.o(HEAP), (512 bytes).
    Removing main.o(.rev16_text), (4 bytes).
    Removing main.o(.revsh_text), (4 bytes).
    Removing main.o(.rrx_text), (6 bytes).
    Removing main.o(.data), (8 bytes).
    Removing main.o(.data), (4 bytes).
    Removing main.o(.data), (4 bytes).
    Removing main.o(.data), (4 bytes).
    Removing main.o(.data), (4 bytes).
    Removing gpio.o(.rev16_text), (4 bytes).
    Removing gpio.o(.revsh_text), (4 bytes).
    Removing gpio.o(.rrx_text), (6 bytes).
    Removing freertos.o(.rev16_text), (4 bytes).
    Removing freertos.o(.revsh_text), (4 bytes).
    Removing freertos.o(.rrx_text), (6 bytes).
    Removing freertos.o(i.MX_FREERTOS_Init), (60 bytes).
    Removing freertos.o(i.StartDefaultTask), (12 bytes).
    Removing freertos.o(i.StartTask02), (32 bytes).
==============================================================================

Image Symbol Table

    Local Symbols

    Symbol Name                              Value     Ov Type        Size  Object(Section)

    ../Drivers/STM32F1xx_HAL_Driver/Src/stm32f1xx_hal.c 0x00000000   Number         0  stm32f1xx_hal.o ABSOLUTE
    ../Drivers/STM32F1xx_HAL_Driver/Src/stm32f1xx_hal_adc.c 0x00000000   Number         0  stm32f1xx_hal_adc.o ABSOLUTE
    ../Drivers/STM32F1xx_HAL_Driver/Src/stm32f1xx_hal_adc_ex.c 0x00000000   Number         0  stm32f1xx_hal_adc_ex.o ABSOLUTE
    ../Drivers/STM32F1xx_HAL_Driver/Src/stm32f1xx_hal_cortex.c 0x00000000   Number         0  stm32f1xx_hal_cortex.o ABSOLUTE
    ../Drivers/STM32F1xx_HAL_Driver/Src/stm32f1xx_hal_dac.c 0x00000000   Number         0  stm32f1xx_hal_dac.o ABSOLUTE
    ../Drivers/STM32F1xx_HAL_Driver/Src/stm32f1xx_hal_dac_ex.c 0x00000000   Number         0  stm32f1xx_hal_dac_ex.o ABSOLUTE
    ../Drivers/STM32F1xx_HAL_Driver/Src/stm32f1xx_hal_dma.c 0x00000000   Number         0  stm32f1xx_hal_dma.o ABSOLUTE
    ../Drivers/STM32F1xx_HAL_Driver/Src/stm32f1xx_hal_exti.c 0x00000000   Number         0  stm32f1xx_hal_exti.o ABSOLUTE
    ../Drivers/STM32F1xx_HAL_Driver/Src/stm32f1xx_hal_flash.c 0x00000000   Number         0  stm32f1xx_hal_flash.o ABSOLUTE
    ../Drivers/STM32F1xx_HAL_Driver/Src/stm32f1xx_hal_flash_ex.c 0x00000000   Number         0  stm32f1xx_hal_flash_ex.o ABSOLUTE
    ../Drivers/STM32F1xx_HAL_Driver/Src/stm32f1xx_hal_gpio.c 0x00000000   Number         0  stm32f1xx_hal_gpio.o ABSOLUTE
    ../Drivers/STM32F1xx_HAL_Driver/Src/stm32f1xx_hal_gpio_ex.c 0x00000000   Number         0  stm32f1xx_hal_gpio_ex.o ABSOLUTE
    ../Drivers/STM32F1xx_HAL_Driver/Src/stm32f1xx_hal_pwr.c 0x00000000   Number         0  stm32f1xx_hal_pwr.o ABSOLUTE
    ../Drivers/STM32F1xx_HAL_Driver/Src/stm32f1xx_hal_rcc.c 0x00000000   Number         0  stm32f1xx_hal_rcc.o ABSOLUTE
    ../Drivers/STM32F1xx_HAL_Driver/Src/stm32f1xx_hal_rcc_ex.c 0x00000000   Number         0  stm32f1xx_hal_rcc_ex.o ABSOLUTE
    ../Drivers/STM32F1xx_HAL_Driver/Src/stm32f1xx_hal_spi.c 0x00000000   Number         0  stm32f1xx_hal_spi.o ABSOLUTE
    ../Drivers/STM32F1xx_HAL_Driver/Src/stm32f1xx_hal_tim.c 0x00000000   Number         0  stm32f1xx_hal_tim.o ABSOLUTE
    ../Drivers/STM32F1xx_HAL_Driver/Src/stm32f1xx_hal_tim_ex.c 0x00000000   Number         0  stm32f1xx_hal_tim_ex.o ABSOLUTE
    ../Drivers/STM32F1xx_HAL_Driver/Src/stm32f1xx_hal_uart.c 0x00000000   Number         0  stm32f1xx_hal_uart.o ABSOLUTE
    ../Middlewares/Third_Party/FreeRTOS/Source/CMSIS_RTOS/cmsis_os.c 0x00000000   Number         0  cmsis_os.o ABSOLUTE
    ../Middlewares/Third_Party/FreeRTOS/Source/croutine.c 0x00000000   Number         0  croutine.o ABSOLUTE
    ../Middlewares/Third_Party/FreeRTOS/Source/event_groups.c 0x00000000   Number         0  event_groups.o ABSOLUTE
    ../Middlewares/Third_Party/FreeRTOS/Source/list.c 0x00000000   Number         0  list.o ABSOLUTE
    ../Middlewares/Third_Party/FreeRTOS/Source/portable/MemMang/heap_4.c 0x00000000   Number         0  heap_4.o ABSOLUTE
    ../Middlewares/Third_Party/FreeRTOS/Source/portable/RVDS/ARM_CM3/port.c 0x00000000   Number         0  port.o ABSOLUTE
    ../Middlewares/Third_Party/FreeRTOS/Source/queue.c 0x00000000   Number         0  queue.o ABSOLUTE
    ../Middlewares/Third_Party/FreeRTOS/Source/stream_buffer.c 0x00000000   Number         0  stream_buffer.o ABSOLUTE
    ../Middlewares/Third_Party/FreeRTOS/Source/tasks.c 0x00000000   Number         0  tasks.o ABSOLUTE
    ../Middlewares/Third_Party/FreeRTOS/Source/timers.c 0x00000000   Number         0  timers.o ABSOLUTE
    ../Src/adc.c                             0x00000000   Number         0  adc.o ABSOLUTE
    ../Src/dac.c                             0x00000000   Number         0  dac.o ABSOLUTE
    ../Src/dma.c                             0x00000000   Number         0  dma.o ABSOLUTE
    ../Src/freertos.c                        0x00000000   Number         0  freertos.o ABSOLUTE
    ../Src/gpio.c                            0x00000000   Number         0  gpio.o ABSOLUTE
    ../Src/main.c                            0x00000000   Number         0  main.o ABSOLUTE
    ../Src/spi.c                             0x00000000   Number         0  spi.o ABSOLUTE
    ../Src/stm32f1xx_hal_msp.c               0x00000000   Number         0  stm32f1xx_hal_msp.o ABSOLUTE
    ../Src/stm32f1xx_hal_timebase_tim.c      0x00000000   Number         0  stm32f1xx_hal_timebase_tim.o ABSOLUTE
    ../Src/stm32f1xx_it.c                    0x00000000   Number         0  stm32f1xx_it.o ABSOLUTE
    ../Src/system_stm32f1xx.c                0x00000000   Number         0  system_stm32f1xx.o ABSOLUTE
    ../Src/tim.c                             0x00000000   Number         0  tim.o ABSOLUTE
    ../Src/usart.c                           0x00000000   Number         0  usart.o ABSOLUTE
    ../clib/microlib/division.c              0x00000000   Number         0  uidiv.o ABSOLUTE
    ../clib/microlib/division.c              0x00000000   Number         0  uldiv.o ABSOLUTE
    ../clib/microlib/init/entry.s            0x00000000   Number         0  entry12a.o ABSOLUTE
    ../clib/microlib/init/entry.s            0x00000000   Number         0  entry2.o ABSOLUTE
    ../clib/microlib/init/entry.s            0x00000000   Number         0  entry.o ABSOLUTE
    ../clib/microlib/init/entry.s            0x00000000   Number         0  entry12b.o ABSOLUTE
    ../clib/microlib/init/entry.s            0x00000000   Number         0  entry11a.o ABSOLUTE
    ../clib/microlib/init/entry.s            0x00000000   Number         0  entry10b.o ABSOLUTE
    ../clib/microlib/init/entry.s            0x00000000   Number         0  entry11b.o ABSOLUTE
    ../clib/microlib/init/entry.s            0x00000000   Number         0  entry10a.o ABSOLUTE
    ../clib/microlib/init/entry.s            0x00000000   Number         0  entry9b.o ABSOLUTE
    ../clib/microlib/init/entry.s            0x00000000   Number         0  entry8b.o ABSOLUTE
    ../clib/microlib/init/entry.s            0x00000000   Number         0  entry7a.o ABSOLUTE
    ../clib/microlib/init/entry.s            0x00000000   Number         0  entry8a.o ABSOLUTE
    ../clib/microlib/init/entry.s            0x00000000   Number         0  entry9a.o ABSOLUTE
    ../clib/microlib/init/entry.s            0x00000000   Number         0  entry7b.o ABSOLUTE
    ../clib/microlib/init/entry.s            0x00000000   Number         0  entry5.o ABSOLUTE
    ../clib/microlib/longlong.c              0x00000000   Number         0  llsshr.o ABSOLUTE
    ../clib/microlib/longlong.c              0x00000000   Number         0  llushr.o ABSOLUTE
    ../clib/microlib/longlong.c              0x00000000   Number         0  llshl.o ABSOLUTE
    ../clib/microlib/printf/printf.c         0x00000000   Number         0  printfb.o ABSOLUTE
    ../clib/microlib/printf/printf.c         0x00000000   Number         0  printf3.o ABSOLUTE
    ../clib/microlib/printf/printf.c         0x00000000   Number         0  printfa.o ABSOLUTE
    ../clib/microlib/printf/printf.c         0x00000000   Number         0  printf8.o ABSOLUTE
    ../clib/microlib/printf/printf.c         0x00000000   Number         0  printf7.o ABSOLUTE
    ../clib/microlib/printf/printf.c         0x00000000   Number         0  printf6.o ABSOLUTE
    ../clib/microlib/printf/printf.c         0x00000000   Number         0  printf5.o ABSOLUTE
    ../clib/microlib/printf/printf.c         0x00000000   Number         0  printf4.o ABSOLUTE
    ../clib/microlib/printf/printf.c         0x00000000   Number         0  printf2.o ABSOLUTE
    ../clib/microlib/printf/printf.c         0x00000000   Number         0  printf1.o ABSOLUTE
    ../clib/microlib/printf/printf.c         0x00000000   Number         0  printf0.o ABSOLUTE
    ../clib/microlib/printf/stubs.s          0x00000000   Number         0  stubs.o ABSOLUTE
    ../clib/microlib/stdio/streams.c         0x00000000   Number         0  stdout.o ABSOLUTE
    ../clib/microlib/string/memcpy.c         0x00000000   Number         0  memcpya.o ABSOLUTE
    ../clib/microlib/string/memcpy.c         0x00000000   Number         0  memcpyb.o ABSOLUTE
    ../clib/microlib/string/memset.c         0x00000000   Number         0  memset.o ABSOLUTE
    ../clib/microlib/string/memset.c         0x00000000   Number         0  memseta.o ABSOLUTE
    ../clib/microlib/stubs.s                 0x00000000   Number         0  iusefp.o ABSOLUTE
    ../fplib/microlib/d2f.c                  0x00000000   Number         0  d2f.o ABSOLUTE
    ../fplib/microlib/f2d.c                  0x00000000   Number         0  f2d.o ABSOLUTE
    ../fplib/microlib/fpadd.c                0x00000000   Number         0  dadd.o ABSOLUTE
    ../fplib/microlib/fpdiv.c                0x00000000   Number         0  fdiv.o ABSOLUTE
    ../fplib/microlib/fpdiv.c                0x00000000   Number         0  ddiv.o ABSOLUTE
    ../fplib/microlib/fpepilogue.c           0x00000000   Number         0  fepilogue.o ABSOLUTE
    ../fplib/microlib/fpepilogue.c           0x00000000   Number         0  depilogue.o ABSOLUTE
    ../fplib/microlib/fpfix.c                0x00000000   Number         0  dfixul.o ABSOLUTE
    ../fplib/microlib/fpfix.c                0x00000000   Number         0  dfixui.o ABSOLUTE
    ../fplib/microlib/fpfix.c                0x00000000   Number         0  ffixui.o ABSOLUTE
    ../fplib/microlib/fpflt.c                0x00000000   Number         0  dfltui.o ABSOLUTE
    ../fplib/microlib/fpflt.c                0x00000000   Number         0  ffltui.o ABSOLUTE
    ../fplib/microlib/fpflt.c                0x00000000   Number         0  fflti.o ABSOLUTE
    ../fplib/microlib/fpmul.c                0x00000000   Number         0  fmul.o ABSOLUTE
    ../fplib/microlib/fpmul.c                0x00000000   Number         0  dmul.o ABSOLUTE
    ../fplib/microlib/fpscalb.c              0x00000000   Number         0  dscalb.o ABSOLUTE
    ..\Drivers\STM32F1xx_HAL_Driver\Src\stm32f1xx_hal.c 0x00000000   Number         0  stm32f1xx_hal.o ABSOLUTE
    ..\Drivers\STM32F1xx_HAL_Driver\Src\stm32f1xx_hal_adc.c 0x00000000   Number         0  stm32f1xx_hal_adc.o ABSOLUTE
    ..\Drivers\STM32F1xx_HAL_Driver\Src\stm32f1xx_hal_adc_ex.c 0x00000000   Number         0  stm32f1xx_hal_adc_ex.o ABSOLUTE
    ..\Drivers\STM32F1xx_HAL_Driver\Src\stm32f1xx_hal_cortex.c 0x00000000   Number         0  stm32f1xx_hal_cortex.o ABSOLUTE
    ..\Drivers\STM32F1xx_HAL_Driver\Src\stm32f1xx_hal_dac.c 0x00000000   Number         0  stm32f1xx_hal_dac.o ABSOLUTE
    ..\Drivers\STM32F1xx_HAL_Driver\Src\stm32f1xx_hal_dac_ex.c 0x00000000   Number         0  stm32f1xx_hal_dac_ex.o ABSOLUTE
    ..\Drivers\STM32F1xx_HAL_Driver\Src\stm32f1xx_hal_dma.c 0x00000000   Number         0  stm32f1xx_hal_dma.o ABSOLUTE
    ..\Drivers\STM32F1xx_HAL_Driver\Src\stm32f1xx_hal_exti.c 0x00000000   Number         0  stm32f1xx_hal_exti.o ABSOLUTE
    ..\Drivers\STM32F1xx_HAL_Driver\Src\stm32f1xx_hal_flash.c 0x00000000   Number         0  stm32f1xx_hal_flash.o ABSOLUTE
    ..\Drivers\STM32F1xx_HAL_Driver\Src\stm32f1xx_hal_flash_ex.c 0x00000000   Number         0  stm32f1xx_hal_flash_ex.o ABSOLUTE
    ..\Drivers\STM32F1xx_HAL_Driver\Src\stm32f1xx_hal_gpio.c 0x00000000   Number         0  stm32f1xx_hal_gpio.o ABSOLUTE
    ..\Drivers\STM32F1xx_HAL_Driver\Src\stm32f1xx_hal_gpio_ex.c 0x00000000   Number         0  stm32f1xx_hal_gpio_ex.o ABSOLUTE
    ..\Drivers\STM32F1xx_HAL_Driver\Src\stm32f1xx_hal_pwr.c 0x00000000   Number         0  stm32f1xx_hal_pwr.o ABSOLUTE
    ..\Drivers\STM32F1xx_HAL_Driver\Src\stm32f1xx_hal_rcc.c 0x00000000   Number         0  stm32f1xx_hal_rcc.o ABSOLUTE
    ..\Drivers\STM32F1xx_HAL_Driver\Src\stm32f1xx_hal_rcc_ex.c 0x00000000   Number         0  stm32f1xx_hal_rcc_ex.o ABSOLUTE
    ..\Drivers\STM32F1xx_HAL_Driver\Src\stm32f1xx_hal_spi.c 0x00000000   Number         0  stm32f1xx_hal_spi.o ABSOLUTE
    ..\Drivers\STM32F1xx_HAL_Driver\Src\stm32f1xx_hal_tim.c 0x00000000   Number         0  stm32f1xx_hal_tim.o ABSOLUTE
    ..\Drivers\STM32F1xx_HAL_Driver\Src\stm32f1xx_hal_tim_ex.c 0x00000000   Number         0  stm32f1xx_hal_tim_ex.o ABSOLUTE
    ..\Drivers\STM32F1xx_HAL_Driver\Src\stm32f1xx_hal_uart.c 0x00000000   Number         0  stm32f1xx_hal_uart.o ABSOLUTE
    ..\Hardware\24CXX\24cxx.c                0x00000000   Number         0  24cxx.o ABSOLUTE
    ..\Hardware\Com.c                        0x00000000   Number         0  com.o ABSOLUTE
    ..\Hardware\Func.c                       0x00000000   Number         0  func.o ABSOLUTE
    ..\Hardware\I2C\my_iic.c                 0x00000000   Number         0  my_iic.o ABSOLUTE
    ..\Hardware\INA226\ina226.c              0x00000000   Number         0  ina226.o ABSOLUTE
    ..\Hardware\LCD\GUI.c                    0x00000000   Number         0  gui.o ABSOLUTE
    ..\Hardware\LCD\lcd.c                    0x00000000   Number         0  lcd.o ABSOLUTE
    ..\Hardware\LED\LED.c                    0x00000000   Number         0  led.o ABSOLUTE
    ..\Hardware\SC8813\sc8813.c              0x00000000   Number         0  sc8813.o ABSOLUTE
    ..\Hardware\ds1307\ds1307.c              0x00000000   Number         0  ds1307.o ABSOLUTE
    ..\Middlewares\Third_Party\FreeRTOS\Source\CMSIS_RTOS\cmsis_os.c 0x00000000   Number         0  cmsis_os.o ABSOLUTE
    ..\Middlewares\Third_Party\FreeRTOS\Source\portable\RVDS\ARM_CM3\port.c 0x00000000   Number         0  port.o ABSOLUTE
    ..\Src\adc.c                             0x00000000   Number         0  adc.o ABSOLUTE
    ..\Src\dac.c                             0x00000000   Number         0  dac.o ABSOLUTE
    ..\Src\dma.c                             0x00000000   Number         0  dma.o ABSOLUTE
    ..\Src\freertos.c                        0x00000000   Number         0  freertos.o ABSOLUTE
    ..\Src\gpio.c                            0x00000000   Number         0  gpio.o ABSOLUTE
    ..\Src\main.c                            0x00000000   Number         0  main.o ABSOLUTE
    ..\Src\spi.c                             0x00000000   Number         0  spi.o ABSOLUTE
    ..\Src\stm32f1xx_hal_msp.c               0x00000000   Number         0  stm32f1xx_hal_msp.o ABSOLUTE
    ..\Src\stm32f1xx_hal_timebase_tim.c      0x00000000   Number         0  stm32f1xx_hal_timebase_tim.o ABSOLUTE
    ..\Src\stm32f1xx_it.c                    0x00000000   Number         0  stm32f1xx_it.o ABSOLUTE
    ..\Src\system_stm32f1xx.c                0x00000000   Number         0  system_stm32f1xx.o ABSOLUTE
    ..\Src\tim.c                             0x00000000   Number         0  tim.o ABSOLUTE
    ..\Src\usart.c                           0x00000000   Number         0  usart.o ABSOLUTE
    ..\\Hardware\\24CXX\\24cxx.c             0x00000000   Number         0  24cxx.o ABSOLUTE
    ..\\Hardware\\Com.c                      0x00000000   Number         0  com.o ABSOLUTE
    ..\\Hardware\\Func.c                     0x00000000   Number         0  func.o ABSOLUTE
    ..\\Hardware\\I2C\\my_iic.c              0x00000000   Number         0  my_iic.o ABSOLUTE
    ..\\Hardware\\INA226\\ina226.c           0x00000000   Number         0  ina226.o ABSOLUTE
    ..\\Hardware\\LCD\\GUI.c                 0x00000000   Number         0  gui.o ABSOLUTE
    ..\\Hardware\\LCD\\lcd.c                 0x00000000   Number         0  lcd.o ABSOLUTE
    ..\\Hardware\\LED\\LED.c                 0x00000000   Number         0  led.o ABSOLUTE
    ..\\Hardware\\SC8813\\sc8813.c           0x00000000   Number         0  sc8813.o ABSOLUTE
    ..\\Hardware\\ds1307\\ds1307.c           0x00000000   Number         0  ds1307.o ABSOLUTE
    cdrcmple.s                               0x00000000   Number         0  cdrcmple.o ABSOLUTE
    dc.s                                     0x00000000   Number         0  dc.o ABSOLUTE
    handlers.s                               0x00000000   Number         0  handlers.o ABSOLUTE
    init.s                                   0x00000000   Number         0  init.o ABSOLUTE
    startup_stm32f103xe.s                    0x00000000   Number         0  startup_stm32f103xe.o ABSOLUTE
    RESET                                    0x08000000   Section      304  startup_stm32f103xe.o(RESET)
    .ARM.Collect$$$$00000000                 0x08000130   Section        0  entry.o(.ARM.Collect$$$$00000000)
    .ARM.Collect$$$$00000001                 0x08000130   Section        4  entry2.o(.ARM.Collect$$$$00000001)
    .ARM.Collect$$$$00000004                 0x08000134   Section        4  entry5.o(.ARM.Collect$$$$00000004)
    .ARM.Collect$$$$00000008                 0x08000138   Section        0  entry7b.o(.ARM.Collect$$$$00000008)
    .ARM.Collect$$$$0000000A                 0x08000138   Section        0  entry8b.o(.ARM.Collect$$$$0000000A)
    .ARM.Collect$$$$0000000B                 0x08000138   Section        8  entry9a.o(.ARM.Collect$$$$0000000B)
    .ARM.Collect$$$$0000000E                 0x08000140   Section        4  entry12b.o(.ARM.Collect$$$$0000000E)
    .ARM.Collect$$$$0000000F                 0x08000144   Section        0  entry10a.o(.ARM.Collect$$$$0000000F)
    .ARM.Collect$$$$00000011                 0x08000144   Section        0  entry11a.o(.ARM.Collect$$$$00000011)
    .ARM.Collect$$$$00002712                 0x08000144   Section        4  entry2.o(.ARM.Collect$$$$00002712)
    __lit__00000000                          0x08000144   Data           4  entry2.o(.ARM.Collect$$$$00002712)
    .emb_text                                0x08000148   Section      150  port.o(.emb_text)
    .text                                    0x080001e0   Section       36  startup_stm32f103xe.o(.text)
    .text                                    0x08000204   Section        0  llushr.o(.text)
    .text                                    0x08000224   Section        0  memseta.o(.text)
    .text                                    0x08000248   Section        0  fmul.o(.text)
    .text                                    0x080002ac   Section        0  fdiv.o(.text)
    .text                                    0x08000328   Section        0  dmul.o(.text)
    .text                                    0x0800040c   Section        0  ddiv.o(.text)
    .text                                    0x080004ea   Section        0  dscalb.o(.text)
    .text                                    0x08000518   Section        0  ffltui.o(.text)
    .text                                    0x08000522   Section        0  ffixui.o(.text)
    .text                                    0x0800054a   Section        0  dfixui.o(.text)
    .text                                    0x0800057c   Section        0  f2d.o(.text)
    .text                                    0x080005a4   Section       48  cdrcmple.o(.text)
    .text                                    0x080005d4   Section        0  uidiv.o(.text)
    .text                                    0x08000600   Section        0  uldiv.o(.text)
    .text                                    0x08000662   Section        0  fepilogue.o(.text)
    .text                                    0x08000662   Section        0  iusefp.o(.text)
    .text                                    0x080006d0   Section        0  depilogue.o(.text)
    .text                                    0x0800078a   Section        0  dadd.o(.text)
    .text                                    0x080008d8   Section        0  dfixul.o(.text)
    .text                                    0x08000908   Section       36  init.o(.text)
    .text                                    0x0800092c   Section        0  llshl.o(.text)
    .text                                    0x0800094a   Section        0  llsshr.o(.text)
    i.ADC_ConversionStop_Disable             0x0800096e   Section        0  stm32f1xx_hal_adc.o(i.ADC_ConversionStop_Disable)
    i.ADC_DMAConvCplt                        0x080009b8   Section        0  stm32f1xx_hal_adc.o(i.ADC_DMAConvCplt)
    i.ADC_DMAError                           0x08000a06   Section        0  stm32f1xx_hal_adc.o(i.ADC_DMAError)
    i.ADC_DMAHalfConvCplt                    0x08000a20   Section        0  stm32f1xx_hal_adc.o(i.ADC_DMAHalfConvCplt)
    i.ADC_Enable                             0x08000a2c   Section        0  stm32f1xx_hal_adc.o(i.ADC_Enable)
    i.ADJUST_IV                              0x08000aa0   Section        0  func.o(i.ADJUST_IV)
    i.BEEP                                   0x08000b68   Section        0  func.o(i.BEEP)
    i.BusFault_Handler                       0x08000bc4   Section        0  stm32f1xx_it.o(i.BusFault_Handler)
    i.DATA_FUN                               0x08000bc8   Section        0  com.o(i.DATA_FUN)
    i.DMA1_Channel1_IRQHandler               0x08000c18   Section        0  stm32f1xx_it.o(i.DMA1_Channel1_IRQHandler)
    i.DMA1_Channel4_IRQHandler               0x08000c24   Section        0  stm32f1xx_it.o(i.DMA1_Channel4_IRQHandler)
    i.DMA1_Channel5_IRQHandler               0x08000c30   Section        0  stm32f1xx_it.o(i.DMA1_Channel5_IRQHandler)
    i.DMA_SetConfig                          0x08000c3c   Section        0  stm32f1xx_hal_dma.o(i.DMA_SetConfig)
    DMA_SetConfig                            0x08000c3d   Thumb Code    44  stm32f1xx_hal_dma.o(i.DMA_SetConfig)
    i.DebugMon_Handler                       0x08000c68   Section        0  stm32f1xx_it.o(i.DebugMon_Handler)
    i.EXTI15_10_IRQHandler                   0x08000c6a   Section        0  stm32f1xx_it.o(i.EXTI15_10_IRQHandler)
    i.EXTI9_5_IRQHandler                     0x08000c88   Section        0  stm32f1xx_it.o(i.EXTI9_5_IRQHandler)
    i.Error_Handler                          0x08000c9e   Section        0  main.o(i.Error_Handler)
    i.GUI_DrawFont16                         0x08000ca0   Section        0  gui.o(i.GUI_DrawFont16)
    i.HAL_ADCEx_Calibration_Start            0x08000d88   Section        0  stm32f1xx_hal_adc_ex.o(i.HAL_ADCEx_Calibration_Start)
    i.HAL_ADC_ConfigChannel                  0x08000e6c   Section        0  stm32f1xx_hal_adc.o(i.HAL_ADC_ConfigChannel)
    i.HAL_ADC_ConvCpltCallback               0x08000f74   Section        0  stm32f1xx_hal_adc.o(i.HAL_ADC_ConvCpltCallback)
    i.HAL_ADC_ConvHalfCpltCallback           0x08000f76   Section        0  stm32f1xx_hal_adc.o(i.HAL_ADC_ConvHalfCpltCallback)
    i.HAL_ADC_ErrorCallback                  0x08000f78   Section        0  stm32f1xx_hal_adc.o(i.HAL_ADC_ErrorCallback)
    i.HAL_ADC_Init                           0x08000f7c   Section        0  stm32f1xx_hal_adc.o(i.HAL_ADC_Init)
    i.HAL_ADC_MspInit                        0x080010a0   Section        0  adc.o(i.HAL_ADC_MspInit)
    i.HAL_ADC_Start_DMA                      0x08001170   Section        0  stm32f1xx_hal_adc.o(i.HAL_ADC_Start_DMA)
    i.HAL_DAC_ConfigChannel                  0x08001290   Section        0  stm32f1xx_hal_dac.o(i.HAL_DAC_ConfigChannel)
    i.HAL_DAC_Init                           0x080012de   Section        0  stm32f1xx_hal_dac.o(i.HAL_DAC_Init)
    i.HAL_DAC_MspInit                        0x08001308   Section        0  dac.o(i.HAL_DAC_MspInit)
    i.HAL_DAC_SetValue                       0x08001360   Section        0  stm32f1xx_hal_dac.o(i.HAL_DAC_SetValue)
    i.HAL_DAC_Start                          0x08001380   Section        0  stm32f1xx_hal_dac.o(i.HAL_DAC_Start)
    i.HAL_DMA_Abort                          0x080013de   Section        0  stm32f1xx_hal_dma.o(i.HAL_DMA_Abort)
    i.HAL_DMA_Abort_IT                       0x08001424   Section        0  stm32f1xx_hal_dma.o(i.HAL_DMA_Abort_IT)
    i.HAL_DMA_IRQHandler                     0x08001574   Section        0  stm32f1xx_hal_dma.o(i.HAL_DMA_IRQHandler)
    i.HAL_DMA_Init                           0x08001814   Section        0  stm32f1xx_hal_dma.o(i.HAL_DMA_Init)
    i.HAL_DMA_Start_IT                       0x08001894   Section        0  stm32f1xx_hal_dma.o(i.HAL_DMA_Start_IT)
    i.HAL_Delay                              0x08001908   Section        0  stm32f1xx_hal.o(i.HAL_Delay)
    i.HAL_GPIO_EXTI_Callback                 0x0800192c   Section        0  func.o(i.HAL_GPIO_EXTI_Callback)
    i.HAL_GPIO_EXTI_IRQHandler               0x08001ad4   Section        0  stm32f1xx_hal_gpio.o(i.HAL_GPIO_EXTI_IRQHandler)
    i.HAL_GPIO_Init                          0x08001aec   Section        0  stm32f1xx_hal_gpio.o(i.HAL_GPIO_Init)
    i.HAL_GPIO_ReadPin                       0x08001d00   Section        0  stm32f1xx_hal_gpio.o(i.HAL_GPIO_ReadPin)
    i.HAL_GPIO_WritePin                      0x08001d0e   Section        0  stm32f1xx_hal_gpio.o(i.HAL_GPIO_WritePin)
    i.HAL_GetTick                            0x08001d1c   Section        0  stm32f1xx_hal.o(i.HAL_GetTick)
    i.HAL_IncTick                            0x08001d28   Section        0  stm32f1xx_hal.o(i.HAL_IncTick)
    i.HAL_Init                               0x08001d38   Section        0  stm32f1xx_hal.o(i.HAL_Init)
    i.HAL_InitTick                           0x08001d5c   Section        0  stm32f1xx_hal_timebase_tim.o(i.HAL_InitTick)
    i.HAL_MspInit                            0x08001dd0   Section        0  stm32f1xx_hal_msp.o(i.HAL_MspInit)
    i.HAL_NVIC_EnableIRQ                     0x08001e18   Section        0  stm32f1xx_hal_cortex.o(i.HAL_NVIC_EnableIRQ)
    i.HAL_NVIC_SetPriority                   0x08001e34   Section        0  stm32f1xx_hal_cortex.o(i.HAL_NVIC_SetPriority)
    i.HAL_NVIC_SetPriorityGrouping           0x08001e74   Section        0  stm32f1xx_hal_cortex.o(i.HAL_NVIC_SetPriorityGrouping)
    i.HAL_RCCEx_GetPeriphCLKFreq             0x08001e98   Section        0  stm32f1xx_hal_rcc_ex.o(i.HAL_RCCEx_GetPeriphCLKFreq)
    i.HAL_RCCEx_PeriphCLKConfig              0x08001f88   Section        0  stm32f1xx_hal_rcc_ex.o(i.HAL_RCCEx_PeriphCLKConfig)
    i.HAL_RCC_ClockConfig                    0x08002094   Section        0  stm32f1xx_hal_rcc.o(i.HAL_RCC_ClockConfig)
    i.HAL_RCC_GetClockConfig                 0x080021e8   Section        0  stm32f1xx_hal_rcc.o(i.HAL_RCC_GetClockConfig)
    i.HAL_RCC_GetHCLKFreq                    0x08002224   Section        0  stm32f1xx_hal_rcc.o(i.HAL_RCC_GetHCLKFreq)
    i.HAL_RCC_GetPCLK1Freq                   0x08002230   Section        0  stm32f1xx_hal_rcc.o(i.HAL_RCC_GetPCLK1Freq)
    i.HAL_RCC_GetPCLK2Freq                   0x08002250   Section        0  stm32f1xx_hal_rcc.o(i.HAL_RCC_GetPCLK2Freq)
    i.HAL_RCC_GetSysClockFreq                0x08002270   Section        0  stm32f1xx_hal_rcc.o(i.HAL_RCC_GetSysClockFreq)
    i.HAL_RCC_OscConfig                      0x080022e4   Section        0  stm32f1xx_hal_rcc.o(i.HAL_RCC_OscConfig)
    i.HAL_SPI_Init                           0x08002668   Section        0  stm32f1xx_hal_spi.o(i.HAL_SPI_Init)
    i.HAL_SPI_MspInit                        0x0800271c   Section        0  spi.o(i.HAL_SPI_MspInit)
    i.HAL_SPI_Transmit                       0x0800278c   Section        0  stm32f1xx_hal_spi.o(i.HAL_SPI_Transmit)
    i.HAL_TIMEx_BreakCallback                0x08002916   Section        0  stm32f1xx_hal_tim_ex.o(i.HAL_TIMEx_BreakCallback)
    i.HAL_TIMEx_CommutCallback               0x08002918   Section        0  stm32f1xx_hal_tim_ex.o(i.HAL_TIMEx_CommutCallback)
    i.HAL_TIMEx_MasterConfigSynchronization  0x0800291c   Section        0  stm32f1xx_hal_tim_ex.o(i.HAL_TIMEx_MasterConfigSynchronization)
    i.HAL_TIM_Base_Init                      0x08002998   Section        0  stm32f1xx_hal_tim.o(i.HAL_TIM_Base_Init)
    i.HAL_TIM_Base_MspInit                   0x080029e4   Section        0  tim.o(i.HAL_TIM_Base_MspInit)
    i.HAL_TIM_Base_Start_IT                  0x08002a50   Section        0  stm32f1xx_hal_tim.o(i.HAL_TIM_Base_Start_IT)
    i.HAL_TIM_ConfigClockSource              0x08002ac8   Section        0  stm32f1xx_hal_tim.o(i.HAL_TIM_ConfigClockSource)
    i.HAL_TIM_Encoder_Init                   0x08002baa   Section        0  stm32f1xx_hal_tim.o(i.HAL_TIM_Encoder_Init)
    i.HAL_TIM_Encoder_MspInit                0x08002c5c   Section        0  tim.o(i.HAL_TIM_Encoder_MspInit)
    i.HAL_TIM_Encoder_Start                  0x08002cb4   Section        0  stm32f1xx_hal_tim.o(i.HAL_TIM_Encoder_Start)
    i.HAL_TIM_IC_CaptureCallback             0x08002d5c   Section        0  stm32f1xx_hal_tim.o(i.HAL_TIM_IC_CaptureCallback)
    i.HAL_TIM_IRQHandler                     0x08002d5e   Section        0  stm32f1xx_hal_tim.o(i.HAL_TIM_IRQHandler)
    i.HAL_TIM_MspPostInit                    0x08002ecc   Section        0  tim.o(i.HAL_TIM_MspPostInit)
    i.HAL_TIM_OC_ConfigChannel               0x08002f98   Section        0  stm32f1xx_hal_tim.o(i.HAL_TIM_OC_ConfigChannel)
    i.HAL_TIM_OC_DelayElapsedCallback        0x08002fe4   Section        0  stm32f1xx_hal_tim.o(i.HAL_TIM_OC_DelayElapsedCallback)
    i.HAL_TIM_OC_Init                        0x08002fe6   Section        0  stm32f1xx_hal_tim.o(i.HAL_TIM_OC_Init)
    i.HAL_TIM_OC_MspInit                     0x08003030   Section        0  tim.o(i.HAL_TIM_OC_MspInit)
    i.HAL_TIM_PWM_ConfigChannel              0x08003058   Section        0  stm32f1xx_hal_tim.o(i.HAL_TIM_PWM_ConfigChannel)
    i.HAL_TIM_PWM_Init                       0x0800312a   Section        0  stm32f1xx_hal_tim.o(i.HAL_TIM_PWM_Init)
    i.HAL_TIM_PWM_MspInit                    0x08003174   Section        0  stm32f1xx_hal_tim.o(i.HAL_TIM_PWM_MspInit)
    i.HAL_TIM_PWM_PulseFinishedCallback      0x08003176   Section        0  stm32f1xx_hal_tim.o(i.HAL_TIM_PWM_PulseFinishedCallback)
    i.HAL_TIM_PWM_Start                      0x08003178   Section        0  stm32f1xx_hal_tim.o(i.HAL_TIM_PWM_Start)
    i.HAL_TIM_PWM_Stop                       0x08003240   Section        0  stm32f1xx_hal_tim.o(i.HAL_TIM_PWM_Stop)
    i.HAL_TIM_PeriodElapsedCallback          0x080032bc   Section        0  main.o(i.HAL_TIM_PeriodElapsedCallback)
    i.HAL_TIM_TriggerCallback                0x080032d0   Section        0  stm32f1xx_hal_tim.o(i.HAL_TIM_TriggerCallback)
    i.HAL_UART_DMAStop                       0x080032d2   Section        0  stm32f1xx_hal_uart.o(i.HAL_UART_DMAStop)
    i.HAL_UART_ErrorCallback                 0x0800332a   Section        0  stm32f1xx_hal_uart.o(i.HAL_UART_ErrorCallback)
    i.HAL_UART_IRQHandler                    0x0800332c   Section        0  stm32f1xx_hal_uart.o(i.HAL_UART_IRQHandler)
    i.HAL_UART_Init                          0x08003440   Section        0  stm32f1xx_hal_uart.o(i.HAL_UART_Init)
    i.HAL_UART_MspInit                       0x080034a4   Section        0  usart.o(i.HAL_UART_MspInit)
    i.HAL_UART_Receive_DMA                   0x08003580   Section        0  stm32f1xx_hal_uart.o(i.HAL_UART_Receive_DMA)
    i.HAL_UART_RxCpltCallback                0x0800361c   Section        0  stm32f1xx_hal_uart.o(i.HAL_UART_RxCpltCallback)
    i.HAL_UART_RxHalfCpltCallback            0x0800361e   Section        0  stm32f1xx_hal_uart.o(i.HAL_UART_RxHalfCpltCallback)
    i.HAL_UART_Transmit                      0x08003620   Section        0  stm32f1xx_hal_uart.o(i.HAL_UART_Transmit)
    i.HAL_UART_TxCpltCallback                0x080036de   Section        0  stm32f1xx_hal_uart.o(i.HAL_UART_TxCpltCallback)
    i.HARDWARE_INIT                          0x080036e0   Section        0  func.o(i.HARDWARE_INIT)
    i.HardFault_Handler                      0x080037d8   Section        0  stm32f1xx_it.o(i.HardFault_Handler)
    i.INA226_GetShuntVoltage                 0x080037da   Section        0  ina226.o(i.INA226_GetShuntVoltage)
    i.INA226_GetVoltage                      0x080037f6   Section        0  ina226.o(i.INA226_GetVoltage)
    i.INA226_Get_Power                       0x0800380c   Section        0  ina226.o(i.INA226_Get_Power)
    i.INA226_Init                            0x08003822   Section        0  ina226.o(i.INA226_Init)
    i.INA226_ReadData                        0x0800384a   Section        0  ina226.o(i.INA226_ReadData)
    i.INA226_SendData                        0x0800387e   Section        0  ina226.o(i.INA226_SendData)
    i.INA226_SetRegPointer                   0x080038ba   Section        0  ina226.o(i.INA226_SetRegPointer)
    i.INTERFACE_SHOW                         0x080038e0   Section        0  func.o(i.INTERFACE_SHOW)
    i.LCD_Clear                              0x08003afc   Section        0  lcd.o(i.LCD_Clear)
    i.LCD_DrawLine                           0x08003b88   Section        0  gui.o(i.LCD_DrawLine)
    i.LCD_DrawPoint                          0x08003c1c   Section        0  lcd.o(i.LCD_DrawPoint)
    i.LCD_Init                               0x08003c34   Section        0  lcd.o(i.LCD_Init)
    i.LCD_RESET                              0x08003dac   Section        0  lcd.o(i.LCD_RESET)
    i.LCD_SetCursor                          0x08003ddc   Section        0  lcd.o(i.LCD_SetCursor)
    i.LCD_SetWindows                         0x08003de4   Section        0  lcd.o(i.LCD_SetWindows)
    i.LCD_ShowChar                           0x08003e64   Section        0  gui.o(i.LCD_ShowChar)
    i.LCD_ShowString                         0x08004144   Section        0  gui.o(i.LCD_ShowString)
    i.LCD_WR_DATA                            0x080041ac   Section        0  lcd.o(i.LCD_WR_DATA)
    i.LCD_WR_REG                             0x080041e0   Section        0  lcd.o(i.LCD_WR_REG)
    i.LCD_WriteRAM_Prepare                   0x08004214   Section        0  lcd.o(i.LCD_WriteRAM_Prepare)
    i.LCD_WriteReg                           0x08004220   Section        0  lcd.o(i.LCD_WriteReg)
    i.LCD_direction                          0x08004234   Section        0  lcd.o(i.LCD_direction)
    i.LED_COLOR                              0x080042ac   Section        0  led.o(i.LED_COLOR)
    i.Lcd_WriteData_16Bit                    0x08004310   Section        0  lcd.o(i.Lcd_WriteData_16Bit)
    i.MX_ADC1_Init                           0x08004354   Section        0  adc.o(i.MX_ADC1_Init)
    i.MX_DAC_Init                            0x080043a4   Section        0  dac.o(i.MX_DAC_Init)
    i.MX_DMA_Init                            0x080043f0   Section        0  dma.o(i.MX_DMA_Init)
    i.MX_GPIO_Init                           0x0800443c   Section        0  gpio.o(i.MX_GPIO_Init)
    i.MX_SPI1_Init                           0x080045cc   Section        0  spi.o(i.MX_SPI1_Init)
    i.MX_TIM2_Init                           0x08004614   Section        0  tim.o(i.MX_TIM2_Init)
    i.MX_TIM3_Init                           0x080046ac   Section        0  tim.o(i.MX_TIM3_Init)
    i.MX_TIM4_Init                           0x08004778   Section        0  tim.o(i.MX_TIM4_Init)
    i.MX_TIM5_Init                           0x080047e8   Section        0  tim.o(i.MX_TIM5_Init)
    i.MX_TIM6_Init                           0x08004854   Section        0  tim.o(i.MX_TIM6_Init)
    i.MX_USART1_UART_Init                    0x0800489c   Section        0  usart.o(i.MX_USART1_UART_Init)
    i.MYIIC_IIC_Ack                          0x080048d4   Section        0  my_iic.o(i.MYIIC_IIC_Ack)
    i.MYIIC_IIC_Init                         0x08004920   Section        0  my_iic.o(i.MYIIC_IIC_Init)
    i.MYIIC_IIC_NAck                         0x08004948   Section        0  my_iic.o(i.MYIIC_IIC_NAck)
    i.MYIIC_IIC_Read_Byte                    0x08004994   Section        0  my_iic.o(i.MYIIC_IIC_Read_Byte)
    i.MYIIC_IIC_Send_Byte                    0x080049fc   Section        0  my_iic.o(i.MYIIC_IIC_Send_Byte)
    i.MYIIC_IIC_Start                        0x08004a68   Section        0  my_iic.o(i.MYIIC_IIC_Start)
    i.MYIIC_IIC_Stop                         0x08004ab4   Section        0  my_iic.o(i.MYIIC_IIC_Stop)
    i.MYIIC_IIC_Wait_Ack                     0x08004af4   Section        0  my_iic.o(i.MYIIC_IIC_Wait_Ack)
    i.MemManage_Handler                      0x08004b54   Section        0  stm32f1xx_it.o(i.MemManage_Handler)
    i.NMI_Handler                            0x08004b56   Section        0  stm32f1xx_it.o(i.NMI_Handler)
    i.RCC_Delay                              0x08004b58   Section        0  stm32f1xx_hal_rcc.o(i.RCC_Delay)
    RCC_Delay                                0x08004b59   Thumb Code    30  stm32f1xx_hal_rcc.o(i.RCC_Delay)
    i.REC_ANALY                              0x08004b7c   Section        0  com.o(i.REC_ANALY)
    i.REG_I_FUN                              0x08004c50   Section        0  com.o(i.REG_I_FUN)
    i.REG_OUT_STA_FUN                        0x08004c52   Section        0  com.o(i.REG_OUT_STA_FUN)
    i.REG_P_FUN                              0x08004c54   Section        0  com.o(i.REG_P_FUN)
    i.REG_SET_I_FUN                          0x08004c56   Section        0  com.o(i.REG_SET_I_FUN)
    i.REG_SET_V_FUN                          0x08004c58   Section        0  com.o(i.REG_SET_V_FUN)
    i.REG_V_FUN                              0x08004c5c   Section        0  com.o(i.REG_V_FUN)
    i.SC8813_Get_Data                        0x08004cc8   Section        0  sc8813.o(i.SC8813_Get_Data)
    i.SC8813_INIT                            0x08004d00   Section        0  sc8813.o(i.SC8813_INIT)
    i.SC8813_ReadData                        0x08004d3a   Section        0  sc8813.o(i.SC8813_ReadData)
    i.SC8813_SendData                        0x08004d5e   Section        0  sc8813.o(i.SC8813_SendData)
    i.SC8813_SetRegPointer                   0x08004d90   Section        0  sc8813.o(i.SC8813_SetRegPointer)
    i.SET_DAC_VAL                            0x08004db8   Section        0  func.o(i.SET_DAC_VAL)
    i.SOFTWARE_INIT                          0x08004ddc   Section        0  func.o(i.SOFTWARE_INIT)
    i.SPI_EndRxTxTransaction                 0x08004e34   Section        0  stm32f1xx_hal_spi.o(i.SPI_EndRxTxTransaction)
    SPI_EndRxTxTransaction                   0x08004e35   Thumb Code    36  stm32f1xx_hal_spi.o(i.SPI_EndRxTxTransaction)
    i.SPI_WaitFlagStateUntilTimeout          0x08004e58   Section        0  stm32f1xx_hal_spi.o(i.SPI_WaitFlagStateUntilTimeout)
    SPI_WaitFlagStateUntilTimeout            0x08004e59   Thumb Code   184  stm32f1xx_hal_spi.o(i.SPI_WaitFlagStateUntilTimeout)
    i.SysTick_Handler                        0x08004f14   Section        0  port.o(i.SysTick_Handler)
    i.SystemClock_Config                     0x08004f40   Section        0  main.o(i.SystemClock_Config)
    i.SystemInit                             0x08004fb8   Section        0  system_stm32f1xx.o(i.SystemInit)
    i.TIM1_UP_IRQHandler                     0x08004fbc   Section        0  stm32f1xx_it.o(i.TIM1_UP_IRQHandler)
    i.TIM6_IRQHandler                        0x08004fc8   Section        0  stm32f1xx_it.o(i.TIM6_IRQHandler)
    i.TIME_TASK                              0x08004fd4   Section        0  func.o(i.TIME_TASK)
    i.TIM_Base_SetConfig                     0x08005000   Section        0  stm32f1xx_hal_tim.o(i.TIM_Base_SetConfig)
    i.TIM_CCxChannelCmd                      0x08005090   Section        0  stm32f1xx_hal_tim.o(i.TIM_CCxChannelCmd)
    i.TIM_ETR_SetConfig                      0x080050aa   Section        0  stm32f1xx_hal_tim.o(i.TIM_ETR_SetConfig)
    i.TIM_ITRx_SetConfig                     0x080050be   Section        0  stm32f1xx_hal_tim.o(i.TIM_ITRx_SetConfig)
    TIM_ITRx_SetConfig                       0x080050bf   Thumb Code    16  stm32f1xx_hal_tim.o(i.TIM_ITRx_SetConfig)
    i.TIM_OC1_SetConfig                      0x080050d0   Section        0  stm32f1xx_hal_tim.o(i.TIM_OC1_SetConfig)
    TIM_OC1_SetConfig                        0x080050d1   Thumb Code    96  stm32f1xx_hal_tim.o(i.TIM_OC1_SetConfig)
    i.TIM_OC2_SetConfig                      0x08005138   Section        0  stm32f1xx_hal_tim.o(i.TIM_OC2_SetConfig)
    i.TIM_OC3_SetConfig                      0x080051ac   Section        0  stm32f1xx_hal_tim.o(i.TIM_OC3_SetConfig)
    TIM_OC3_SetConfig                        0x080051ad   Thumb Code   104  stm32f1xx_hal_tim.o(i.TIM_OC3_SetConfig)
    i.TIM_OC4_SetConfig                      0x0800521c   Section        0  stm32f1xx_hal_tim.o(i.TIM_OC4_SetConfig)
    TIM_OC4_SetConfig                        0x0800521d   Thumb Code    74  stm32f1xx_hal_tim.o(i.TIM_OC4_SetConfig)
    i.TIM_TI1_ConfigInputStage               0x08005270   Section        0  stm32f1xx_hal_tim.o(i.TIM_TI1_ConfigInputStage)
    TIM_TI1_ConfigInputStage                 0x08005271   Thumb Code    34  stm32f1xx_hal_tim.o(i.TIM_TI1_ConfigInputStage)
    i.TIM_TI2_ConfigInputStage               0x08005292   Section        0  stm32f1xx_hal_tim.o(i.TIM_TI2_ConfigInputStage)
    TIM_TI2_ConfigInputStage                 0x08005293   Thumb Code    36  stm32f1xx_hal_tim.o(i.TIM_TI2_ConfigInputStage)
    i.UART_DMAAbortOnError                   0x080052b6   Section        0  stm32f1xx_hal_uart.o(i.UART_DMAAbortOnError)
    UART_DMAAbortOnError                     0x080052b7   Thumb Code    16  stm32f1xx_hal_uart.o(i.UART_DMAAbortOnError)
    i.UART_DMAError                          0x080052c6   Section        0  stm32f1xx_hal_uart.o(i.UART_DMAError)
    UART_DMAError                            0x080052c7   Thumb Code    74  stm32f1xx_hal_uart.o(i.UART_DMAError)
    i.UART_DMAReceiveCplt                    0x08005310   Section        0  stm32f1xx_hal_uart.o(i.UART_DMAReceiveCplt)
    UART_DMAReceiveCplt                      0x08005311   Thumb Code    60  stm32f1xx_hal_uart.o(i.UART_DMAReceiveCplt)
    i.UART_DMARxHalfCplt                     0x0800534c   Section        0  stm32f1xx_hal_uart.o(i.UART_DMARxHalfCplt)
    UART_DMARxHalfCplt                       0x0800534d   Thumb Code    10  stm32f1xx_hal_uart.o(i.UART_DMARxHalfCplt)
    i.UART_EndRxTransfer                     0x08005356   Section        0  stm32f1xx_hal_uart.o(i.UART_EndRxTransfer)
    UART_EndRxTransfer                       0x08005357   Thumb Code    28  stm32f1xx_hal_uart.o(i.UART_EndRxTransfer)
    i.UART_EndTransmit_IT                    0x08005372   Section        0  stm32f1xx_hal_uart.o(i.UART_EndTransmit_IT)
    UART_EndTransmit_IT                      0x08005373   Thumb Code    26  stm32f1xx_hal_uart.o(i.UART_EndTransmit_IT)
    i.UART_EndTxTransfer                     0x0800538c   Section        0  stm32f1xx_hal_uart.o(i.UART_EndTxTransfer)
    UART_EndTxTransfer                       0x0800538d   Thumb Code    18  stm32f1xx_hal_uart.o(i.UART_EndTxTransfer)
    i.UART_Receive_IT                        0x0800539e   Section        0  stm32f1xx_hal_uart.o(i.UART_Receive_IT)
    UART_Receive_IT                          0x0800539f   Thumb Code   146  stm32f1xx_hal_uart.o(i.UART_Receive_IT)
    i.UART_RxIdleCallback                    0x08005430   Section        0  com.o(i.UART_RxIdleCallback)
    i.UART_SetConfig                         0x080054c8   Section        0  stm32f1xx_hal_uart.o(i.UART_SetConfig)
    UART_SetConfig                           0x080054c9   Thumb Code   178  stm32f1xx_hal_uart.o(i.UART_SetConfig)
    i.UART_Transmit_IT                       0x08005580   Section        0  stm32f1xx_hal_uart.o(i.UART_Transmit_IT)
    UART_Transmit_IT                         0x08005581   Thumb Code    94  stm32f1xx_hal_uart.o(i.UART_Transmit_IT)
    i.UART_WaitOnFlagUntilTimeout            0x080055de   Section        0  stm32f1xx_hal_uart.o(i.UART_WaitOnFlagUntilTimeout)
    UART_WaitOnFlagUntilTimeout              0x080055df   Thumb Code   100  stm32f1xx_hal_uart.o(i.UART_WaitOnFlagUntilTimeout)
    i.UPDATA_SHOW                            0x08005644   Section        0  func.o(i.UPDATA_SHOW)
    i.USART1_IRQHandler                      0x08006208   Section        0  stm32f1xx_it.o(i.USART1_IRQHandler)
    i.USER_ADC_SetValue                      0x08006220   Section        0  func.o(i.USER_ADC_SetValue)
    i.UsageFault_Handler                     0x0800627c   Section        0  stm32f1xx_it.o(i.UsageFault_Handler)
    i.__0printf                              0x08006280   Section        0  printfa.o(i.__0printf)
    i.__0sprintf                             0x080062a0   Section        0  printfa.o(i.__0sprintf)
    i.__NVIC_SetPriority                     0x080062c8   Section        0  stm32f1xx_hal_cortex.o(i.__NVIC_SetPriority)
    __NVIC_SetPriority                       0x080062c9   Thumb Code    32  stm32f1xx_hal_cortex.o(i.__NVIC_SetPriority)
    i.__scatterload_copy                     0x080062e8   Section       14  handlers.o(i.__scatterload_copy)
    i.__scatterload_null                     0x080062f6   Section        2  handlers.o(i.__scatterload_null)
    i.__scatterload_zeroinit                 0x080062f8   Section       14  handlers.o(i.__scatterload_zeroinit)
    i._draw_circle_8                         0x08006306   Section        0  gui.o(i._draw_circle_8)
    i._fp_digits                             0x0800638c   Section        0  printfa.o(i._fp_digits)
    _fp_digits                               0x0800638d   Thumb Code   366  printfa.o(i._fp_digits)
    i._printf_core                           0x08006510   Section        0  printfa.o(i._printf_core)
    _printf_core                             0x08006511   Thumb Code  1704  printfa.o(i._printf_core)
    i._printf_post_padding                   0x08006bc4   Section        0  printfa.o(i._printf_post_padding)
    _printf_post_padding                     0x08006bc5   Thumb Code    36  printfa.o(i._printf_post_padding)
    i._printf_pre_padding                    0x08006be8   Section        0  printfa.o(i._printf_pre_padding)
    _printf_pre_padding                      0x08006be9   Thumb Code    46  printfa.o(i._printf_pre_padding)
    i._sputc                                 0x08006c16   Section        0  printfa.o(i._sputc)
    _sputc                                   0x08006c17   Thumb Code    10  printfa.o(i._sputc)
    i.delay_nns                              0x08006c20   Section        0  my_iic.o(i.delay_nns)
    delay_nns                                0x08006c21   Thumb Code    10  my_iic.o(i.delay_nns)
    i.delay_nus                              0x08006c2a   Section        0  my_iic.o(i.delay_nus)
    i.fputc                                  0x08006c44   Section        0  main.o(i.fputc)
    i.gui_circle                             0x08006c5c   Section        0  gui.o(i.gui_circle)
    i.main                                   0x08006cd8   Section        0  main.o(i.main)
    i.prvResetNextTaskUnblockTime            0x08006d5c   Section        0  tasks.o(i.prvResetNextTaskUnblockTime)
    prvResetNextTaskUnblockTime              0x08006d5d   Thumb Code    30  tasks.o(i.prvResetNextTaskUnblockTime)
    i.uxListRemove                           0x08006d80   Section        0  list.o(i.uxListRemove)
    i.vListInsertEnd                         0x08006da6   Section        0  list.o(i.vListInsertEnd)
    i.vTaskSwitchContext                     0x08006dc0   Section        0  tasks.o(i.vTaskSwitchContext)
    i.xTaskIncrementTick                     0x08006e20   Section        0  tasks.o(i.xTaskIncrementTick)
    .constdata                               0x08006eec   Section       16  system_stm32f1xx.o(.constdata)
    .constdata                               0x08006efc   Section        8  system_stm32f1xx.o(.constdata)
    .constdata                               0x08006f04   Section    12408  gui.o(.constdata)
    .data                                    0x20000000   Section        2  main.o(.data)
    .data                                    0x20000004   Section       12  stm32f1xx_hal.o(.data)
    .data                                    0x20000010   Section        4  system_stm32f1xx.o(.data)
    .data                                    0x20000014   Section       14  func.o(.data)
    flag                                     0x20000014   Data           1  func.o(.data)
    time                                     0x20000016   Data           2  func.o(.data)
    BUF_ENC                                  0x20000018   Data           2  func.o(.data)
    .data                                    0x20000022   Section        2  lcd.o(.data)
    .data                                    0x20000024   Section        2  lcd.o(.data)
    .data                                    0x20000026   Section        2  sc8813.o(.data)
    .data                                    0x20000028   Section        1  com.o(.data)
    .data                                    0x2000002c   Section        4  led.o(.data)
    .data                                    0x20000030   Section       60  tasks.o(.data)
    pxDelayedTaskList                        0x20000034   Data           4  tasks.o(.data)
    pxOverflowDelayedTaskList                0x20000038   Data           4  tasks.o(.data)
    uxDeletedTasksWaitingCleanUp             0x2000003c   Data           4  tasks.o(.data)
    uxCurrentNumberOfTasks                   0x20000040   Data           4  tasks.o(.data)
    xTickCount                               0x20000044   Data           4  tasks.o(.data)
    uxTopReadyPriority                       0x20000048   Data           4  tasks.o(.data)
    xSchedulerRunning                        0x2000004c   Data           4  tasks.o(.data)
    uxPendedTicks                            0x20000050   Data           4  tasks.o(.data)
    xYieldPending                            0x20000054   Data           4  tasks.o(.data)
    xNumOfOverflows                          0x20000058   Data           4  tasks.o(.data)
    uxTaskNumber                             0x2000005c   Data           4  tasks.o(.data)
    xNextTaskUnblockTime                     0x20000060   Data           4  tasks.o(.data)
    xIdleTaskHandle                          0x20000064   Data           4  tasks.o(.data)
    uxSchedulerSuspended                     0x20000068   Data           4  tasks.o(.data)
    .data                                    0x2000006c   Section        4  stdout.o(.data)
    .bss                                     0x20000070   Section      116  adc.o(.bss)
    .bss                                     0x200000e4   Section       20  dac.o(.bss)
    .bss                                     0x200000f8   Section       88  spi.o(.bss)
    .bss                                     0x20000150   Section      360  tim.o(.bss)
    .bss                                     0x200002b8   Section      200  usart.o(.bss)
    .bss                                     0x20000380   Section       72  stm32f1xx_hal_timebase_tim.o(.bss)
    .bss                                     0x200003c8   Section      976  func.o(.bss)
    .bss                                     0x20000798   Section       16  lcd.o(.bss)
    .bss                                     0x200007a8   Section      771  com.o(.bss)
    .bss                                     0x20000aac   Section      240  tasks.o(.bss)
    pxReadyTasksLists                        0x20000aac   Data         140  tasks.o(.bss)
    xDelayedTaskList1                        0x20000b38   Data          20  tasks.o(.bss)
    xDelayedTaskList2                        0x20000b4c   Data          20  tasks.o(.bss)
    xPendingReadyList                        0x20000b60   Data          20  tasks.o(.bss)
    xTasksWaitingTermination                 0x20000b74   Data          20  tasks.o(.bss)
    xSuspendedTaskList                       0x20000b88   Data          20  tasks.o(.bss)
    STACK                                    0x20000ba0   Section     1024  startup_stm32f103xe.o(STACK)

    Global Symbols

    Symbol Name                              Value     Ov Type        Size  Object(Section)

    BuildAttributes$$THM_ISAv4$P$D$K$B$S$PE$A:L22UL41UL21$X:L11$S22US41US21$IEEE1$IW$USESV6$~STKCKD$USESV7$~SHL$OTIME$ROPI$EBA8$MICROLIB$REQ8$PRES8$EABIv2 0x00000000   Number         0  anon$$obj.o ABSOLUTE
    __ARM_use_no_argv                        0x00000000   Number         0  main.o ABSOLUTE
    _printf_a                                0x00000000   Number         0  stubs.o ABSOLUTE
    _printf_c                                0x00000000   Number         0  stubs.o ABSOLUTE
    _printf_charcount                        0x00000000   Number         0  stubs.o ABSOLUTE
    _printf_d                                0x00000000   Number         0  stubs.o ABSOLUTE
    _printf_e                                0x00000000   Number         0  stubs.o ABSOLUTE
    _printf_f                                0x00000000   Number         0  stubs.o ABSOLUTE
    _printf_flags                            0x00000000   Number         0  stubs.o ABSOLUTE
    _printf_fp_dec                           0x00000000   Number         0  stubs.o ABSOLUTE
    _printf_fp_hex                           0x00000000   Number         0  stubs.o ABSOLUTE
    _printf_g                                0x00000000   Number         0  stubs.o ABSOLUTE
    _printf_i                                0x00000000   Number         0  stubs.o ABSOLUTE
    _printf_int_dec                          0x00000000   Number         0  stubs.o ABSOLUTE
    _printf_l                                0x00000000   Number         0  stubs.o ABSOLUTE
    _printf_lc                               0x00000000   Number         0  stubs.o ABSOLUTE
    _printf_ll                               0x00000000   Number         0  stubs.o ABSOLUTE
    _printf_lld                              0x00000000   Number         0  stubs.o ABSOLUTE
    _printf_lli                              0x00000000   Number         0  stubs.o ABSOLUTE
    _printf_llo                              0x00000000   Number         0  stubs.o ABSOLUTE
    _printf_llu                              0x00000000   Number         0  stubs.o ABSOLUTE
    _printf_llx                              0x00000000   Number         0  stubs.o ABSOLUTE
    _printf_longlong_dec                     0x00000000   Number         0  stubs.o ABSOLUTE
    _printf_longlong_hex                     0x00000000   Number         0  stubs.o ABSOLUTE
    _printf_longlong_oct                     0x00000000   Number         0  stubs.o ABSOLUTE
    _printf_ls                               0x00000000   Number         0  stubs.o ABSOLUTE
    _printf_mbtowc                           0x00000000   Number         0  stubs.o ABSOLUTE
    _printf_n                                0x00000000   Number         0  stubs.o ABSOLUTE
    _printf_o                                0x00000000   Number         0  stubs.o ABSOLUTE
    _printf_p                                0x00000000   Number         0  stubs.o ABSOLUTE
    _printf_percent                          0x00000000   Number         0  stubs.o ABSOLUTE
    _printf_pre_padding                      0x00000000   Number         0  stubs.o ABSOLUTE
    _printf_return_value                     0x00000000   Number         0  stubs.o ABSOLUTE
    _printf_s                                0x00000000   Number         0  stubs.o ABSOLUTE
    _printf_sizespec                         0x00000000   Number         0  stubs.o ABSOLUTE
    _printf_str                              0x00000000   Number         0  stubs.o ABSOLUTE
    _printf_truncate_signed                  0x00000000   Number         0  stubs.o ABSOLUTE
    _printf_truncate_unsigned                0x00000000   Number         0  stubs.o ABSOLUTE
    _printf_u                                0x00000000   Number         0  stubs.o ABSOLUTE
    _printf_wc                               0x00000000   Number         0  stubs.o ABSOLUTE
    _printf_wctomb                           0x00000000   Number         0  stubs.o ABSOLUTE
    _printf_widthprec                        0x00000000   Number         0  stubs.o ABSOLUTE
    _printf_x                                0x00000000   Number         0  stubs.o ABSOLUTE
    __arm_fini_                               - Undefined Weak Reference
    __cpp_initialize__aeabi_                  - Undefined Weak Reference
    __cxa_finalize                            - Undefined Weak Reference
    __decompress                              - Undefined Weak Reference
    _clock_init                               - Undefined Weak Reference
    _microlib_exit                            - Undefined Weak Reference
    __Vectors_Size                           0x00000130   Number         0  startup_stm32f103xe.o ABSOLUTE
    __Vectors                                0x08000000   Data           4  startup_stm32f103xe.o(RESET)
    __Vectors_End                            0x08000130   Data           0  startup_stm32f103xe.o(RESET)
    __main                                   0x08000131   Thumb Code     0  entry.o(.ARM.Collect$$$$00000000)
    _main_stk                                0x08000131   Thumb Code     0  entry2.o(.ARM.Collect$$$$00000001)
    _main_scatterload                        0x08000135   Thumb Code     0  entry5.o(.ARM.Collect$$$$00000004)
    __main_after_scatterload                 0x08000139   Thumb Code     0  entry5.o(.ARM.Collect$$$$00000004)
    _main_clock                              0x08000139   Thumb Code     0  entry7b.o(.ARM.Collect$$$$00000008)
    _main_cpp_init                           0x08000139   Thumb Code     0  entry8b.o(.ARM.Collect$$$$0000000A)
    _main_init                               0x08000139   Thumb Code     0  entry9a.o(.ARM.Collect$$$$0000000B)
    __rt_lib_shutdown_fini                   0x08000141   Thumb Code     0  entry12b.o(.ARM.Collect$$$$0000000E)
    __rt_final_cpp                           0x08000145   Thumb Code     0  entry10a.o(.ARM.Collect$$$$0000000F)
    __rt_final_exit                          0x08000145   Thumb Code     0  entry11a.o(.ARM.Collect$$$$00000011)
    SVC_Handler                              0x08000149   Thumb Code    32  port.o(.emb_text)
    __asm___6_port_c_39a90d8d__prvStartFirstTask 0x0800016d   Thumb Code    28  port.o(.emb_text)
    PendSV_Handler                           0x0800018d   Thumb Code    72  port.o(.emb_text)
    vPortGetIPSR                             0x080001d9   Thumb Code     6  port.o(.emb_text)
    Reset_Handler                            0x080001e1   Thumb Code     8  startup_stm32f103xe.o(.text)
    ADC1_2_IRQHandler                        0x080001fb   Thumb Code     0  startup_stm32f103xe.o(.text)
    ADC3_IRQHandler                          0x080001fb   Thumb Code     0  startup_stm32f103xe.o(.text)
    CAN1_RX1_IRQHandler                      0x080001fb   Thumb Code     0  startup_stm32f103xe.o(.text)
    CAN1_SCE_IRQHandler                      0x080001fb   Thumb Code     0  startup_stm32f103xe.o(.text)
    DMA1_Channel2_IRQHandler                 0x080001fb   Thumb Code     0  startup_stm32f103xe.o(.text)
    DMA1_Channel3_IRQHandler                 0x080001fb   Thumb Code     0  startup_stm32f103xe.o(.text)
    DMA1_Channel6_IRQHandler                 0x080001fb   Thumb Code     0  startup_stm32f103xe.o(.text)
    DMA1_Channel7_IRQHandler                 0x080001fb   Thumb Code     0  startup_stm32f103xe.o(.text)
    DMA2_Channel1_IRQHandler                 0x080001fb   Thumb Code     0  startup_stm32f103xe.o(.text)
    DMA2_Channel2_IRQHandler                 0x080001fb   Thumb Code     0  startup_stm32f103xe.o(.text)
    DMA2_Channel3_IRQHandler                 0x080001fb   Thumb Code     0  startup_stm32f103xe.o(.text)
    DMA2_Channel4_5_IRQHandler               0x080001fb   Thumb Code     0  startup_stm32f103xe.o(.text)
    EXTI0_IRQHandler                         0x080001fb   Thumb Code     0  startup_stm32f103xe.o(.text)
    EXTI1_IRQHandler                         0x080001fb   Thumb Code     0  startup_stm32f103xe.o(.text)
    EXTI2_IRQHandler                         0x080001fb   Thumb Code     0  startup_stm32f103xe.o(.text)
    EXTI3_IRQHandler                         0x080001fb   Thumb Code     0  startup_stm32f103xe.o(.text)
    EXTI4_IRQHandler                         0x080001fb   Thumb Code     0  startup_stm32f103xe.o(.text)
    FLASH_IRQHandler                         0x080001fb   Thumb Code     0  startup_stm32f103xe.o(.text)
    FSMC_IRQHandler                          0x080001fb   Thumb Code     0  startup_stm32f103xe.o(.text)
    I2C1_ER_IRQHandler                       0x080001fb   Thumb Code     0  startup_stm32f103xe.o(.text)
    I2C1_EV_IRQHandler                       0x080001fb   Thumb Code     0  startup_stm32f103xe.o(.text)
    I2C2_ER_IRQHandler                       0x080001fb   Thumb Code     0  startup_stm32f103xe.o(.text)
    I2C2_EV_IRQHandler                       0x080001fb   Thumb Code     0  startup_stm32f103xe.o(.text)
    PVD_IRQHandler                           0x080001fb   Thumb Code     0  startup_stm32f103xe.o(.text)
    RCC_IRQHandler                           0x080001fb   Thumb Code     0  startup_stm32f103xe.o(.text)
    RTC_Alarm_IRQHandler                     0x080001fb   Thumb Code     0  startup_stm32f103xe.o(.text)
    RTC_IRQHandler                           0x080001fb   Thumb Code     0  startup_stm32f103xe.o(.text)
    SDIO_IRQHandler                          0x080001fb   Thumb Code     0  startup_stm32f103xe.o(.text)
    SPI1_IRQHandler                          0x080001fb   Thumb Code     0  startup_stm32f103xe.o(.text)
    SPI2_IRQHandler                          0x080001fb   Thumb Code     0  startup_stm32f103xe.o(.text)
    SPI3_IRQHandler                          0x080001fb   Thumb Code     0  startup_stm32f103xe.o(.text)
    TAMPER_IRQHandler                        0x080001fb   Thumb Code     0  startup_stm32f103xe.o(.text)
    TIM1_BRK_IRQHandler                      0x080001fb   Thumb Code     0  startup_stm32f103xe.o(.text)
    TIM1_CC_IRQHandler                       0x080001fb   Thumb Code     0  startup_stm32f103xe.o(.text)
    TIM1_TRG_COM_IRQHandler                  0x080001fb   Thumb Code     0  startup_stm32f103xe.o(.text)
    TIM2_IRQHandler                          0x080001fb   Thumb Code     0  startup_stm32f103xe.o(.text)
    TIM3_IRQHandler                          0x080001fb   Thumb Code     0  startup_stm32f103xe.o(.text)
    TIM4_IRQHandler                          0x080001fb   Thumb Code     0  startup_stm32f103xe.o(.text)
    TIM5_IRQHandler                          0x080001fb   Thumb Code     0  startup_stm32f103xe.o(.text)
    TIM7_IRQHandler                          0x080001fb   Thumb Code     0  startup_stm32f103xe.o(.text)
    TIM8_BRK_IRQHandler                      0x080001fb   Thumb Code     0  startup_stm32f103xe.o(.text)
    TIM8_CC_IRQHandler                       0x080001fb   Thumb Code     0  startup_stm32f103xe.o(.text)
    TIM8_TRG_COM_IRQHandler                  0x080001fb   Thumb Code     0  startup_stm32f103xe.o(.text)
    TIM8_UP_IRQHandler                       0x080001fb   Thumb Code     0  startup_stm32f103xe.o(.text)
    UART4_IRQHandler                         0x080001fb   Thumb Code     0  startup_stm32f103xe.o(.text)
    UART5_IRQHandler                         0x080001fb   Thumb Code     0  startup_stm32f103xe.o(.text)
    USART2_IRQHandler                        0x080001fb   Thumb Code     0  startup_stm32f103xe.o(.text)
    USART3_IRQHandler                        0x080001fb   Thumb Code     0  startup_stm32f103xe.o(.text)
    USBWakeUp_IRQHandler                     0x080001fb   Thumb Code     0  startup_stm32f103xe.o(.text)
    USB_HP_CAN1_TX_IRQHandler                0x080001fb   Thumb Code     0  startup_stm32f103xe.o(.text)
    USB_LP_CAN1_RX0_IRQHandler               0x080001fb   Thumb Code     0  startup_stm32f103xe.o(.text)
    WWDG_IRQHandler                          0x080001fb   Thumb Code     0  startup_stm32f103xe.o(.text)
    __aeabi_llsr                             0x08000205   Thumb Code    32  llushr.o(.text)
    _ll_ushift_r                             0x08000205   Thumb Code     0  llushr.o(.text)
    __aeabi_memset                           0x08000225   Thumb Code    14  memseta.o(.text)
    __aeabi_memset4                          0x08000225   Thumb Code     0  memseta.o(.text)
    __aeabi_memset8                          0x08000225   Thumb Code     0  memseta.o(.text)
    __aeabi_memclr                           0x08000233   Thumb Code     4  memseta.o(.text)
    __aeabi_memclr4                          0x08000233   Thumb Code     0  memseta.o(.text)
    __aeabi_memclr8                          0x08000233   Thumb Code     0  memseta.o(.text)
    memset                                   0x08000237   Thumb Code    18  memseta.o(.text)
    __aeabi_fmul                             0x08000249   Thumb Code   100  fmul.o(.text)
    __aeabi_fdiv                             0x080002ad   Thumb Code   124  fdiv.o(.text)
    __aeabi_dmul                             0x08000329   Thumb Code   228  dmul.o(.text)
    __aeabi_ddiv                             0x0800040d   Thumb Code   222  ddiv.o(.text)
    __ARM_scalbn                             0x080004eb   Thumb Code    46  dscalb.o(.text)
    scalbn                                   0x080004eb   Thumb Code     0  dscalb.o(.text)
    __aeabi_ui2f                             0x08000519   Thumb Code    10  ffltui.o(.text)
    __aeabi_f2uiz                            0x08000523   Thumb Code    40  ffixui.o(.text)
    __aeabi_d2uiz                            0x0800054b   Thumb Code    50  dfixui.o(.text)
    __aeabi_f2d                              0x0800057d   Thumb Code    38  f2d.o(.text)
    __aeabi_cdrcmple                         0x080005a5   Thumb Code    48  cdrcmple.o(.text)
    __aeabi_uidiv                            0x080005d5   Thumb Code     0  uidiv.o(.text)
    __aeabi_uidivmod                         0x080005d5   Thumb Code    44  uidiv.o(.text)
    __aeabi_uldivmod                         0x08000601   Thumb Code    98  uldiv.o(.text)
    __I$use$fp                               0x08000663   Thumb Code     0  iusefp.o(.text)
    _float_round                             0x08000663   Thumb Code    18  fepilogue.o(.text)
    _float_epilogue                          0x08000675   Thumb Code    92  fepilogue.o(.text)
    _double_round                            0x080006d1   Thumb Code    30  depilogue.o(.text)
    _double_epilogue                         0x080006ef   Thumb Code   156  depilogue.o(.text)
    __aeabi_dadd                             0x0800078b   Thumb Code   322  dadd.o(.text)
    __aeabi_dsub                             0x080008cd   Thumb Code     6  dadd.o(.text)
    __aeabi_drsub                            0x080008d3   Thumb Code     6  dadd.o(.text)
    __aeabi_d2ulz                            0x080008d9   Thumb Code    48  dfixul.o(.text)
    __scatterload                            0x08000909   Thumb Code    28  init.o(.text)
    __scatterload_rt2                        0x08000909   Thumb Code     0  init.o(.text)
    __aeabi_llsl                             0x0800092d   Thumb Code    30  llshl.o(.text)
    _ll_shift_l                              0x0800092d   Thumb Code     0  llshl.o(.text)
    __aeabi_lasr                             0x0800094b   Thumb Code    36  llsshr.o(.text)
    _ll_sshift_r                             0x0800094b   Thumb Code     0  llsshr.o(.text)
    ADC_ConversionStop_Disable               0x0800096f   Thumb Code    74  stm32f1xx_hal_adc.o(i.ADC_ConversionStop_Disable)
    ADC_DMAConvCplt                          0x080009b9   Thumb Code    78  stm32f1xx_hal_adc.o(i.ADC_DMAConvCplt)
    ADC_DMAError                             0x08000a07   Thumb Code    26  stm32f1xx_hal_adc.o(i.ADC_DMAError)
    ADC_DMAHalfConvCplt                      0x08000a21   Thumb Code    10  stm32f1xx_hal_adc.o(i.ADC_DMAHalfConvCplt)
    ADC_Enable                               0x08000a2d   Thumb Code   108  stm32f1xx_hal_adc.o(i.ADC_Enable)
    ADJUST_IV                                0x08000aa1   Thumb Code   182  func.o(i.ADJUST_IV)
    BEEP                                     0x08000b69   Thumb Code    78  func.o(i.BEEP)
    BusFault_Handler                         0x08000bc5   Thumb Code     2  stm32f1xx_it.o(i.BusFault_Handler)
    DATA_FUN                                 0x08000bc9   Thumb Code    58  com.o(i.DATA_FUN)
    DMA1_Channel1_IRQHandler                 0x08000c19   Thumb Code     6  stm32f1xx_it.o(i.DMA1_Channel1_IRQHandler)
    DMA1_Channel4_IRQHandler                 0x08000c25   Thumb Code     6  stm32f1xx_it.o(i.DMA1_Channel4_IRQHandler)
    DMA1_Channel5_IRQHandler                 0x08000c31   Thumb Code     6  stm32f1xx_it.o(i.DMA1_Channel5_IRQHandler)
    DebugMon_Handler                         0x08000c69   Thumb Code     2  stm32f1xx_it.o(i.DebugMon_Handler)
    EXTI15_10_IRQHandler                     0x08000c6b   Thumb Code    30  stm32f1xx_it.o(i.EXTI15_10_IRQHandler)
    EXTI9_5_IRQHandler                       0x08000c89   Thumb Code    22  stm32f1xx_it.o(i.EXTI9_5_IRQHandler)
    Error_Handler                            0x08000c9f   Thumb Code     2  main.o(i.Error_Handler)
    GUI_DrawFont16                           0x08000ca1   Thumb Code   218  gui.o(i.GUI_DrawFont16)
    HAL_ADCEx_Calibration_Start              0x08000d89   Thumb Code   222  stm32f1xx_hal_adc_ex.o(i.HAL_ADCEx_Calibration_Start)
    HAL_ADC_ConfigChannel                    0x08000e6d   Thumb Code   250  stm32f1xx_hal_adc.o(i.HAL_ADC_ConfigChannel)
    HAL_ADC_ConvCpltCallback                 0x08000f75   Thumb Code     2  stm32f1xx_hal_adc.o(i.HAL_ADC_ConvCpltCallback)
    HAL_ADC_ConvHalfCpltCallback             0x08000f77   Thumb Code     2  stm32f1xx_hal_adc.o(i.HAL_ADC_ConvHalfCpltCallback)
    HAL_ADC_ErrorCallback                    0x08000f79   Thumb Code     2  stm32f1xx_hal_adc.o(i.HAL_ADC_ErrorCallback)
    HAL_ADC_Init                             0x08000f7d   Thumb Code   278  stm32f1xx_hal_adc.o(i.HAL_ADC_Init)
    HAL_ADC_MspInit                          0x080010a1   Thumb Code   180  adc.o(i.HAL_ADC_MspInit)
    HAL_ADC_Start_DMA                        0x08001171   Thumb Code   268  stm32f1xx_hal_adc.o(i.HAL_ADC_Start_DMA)
    HAL_DAC_ConfigChannel                    0x08001291   Thumb Code    78  stm32f1xx_hal_dac.o(i.HAL_DAC_ConfigChannel)
    HAL_DAC_Init                             0x080012df   Thumb Code    42  stm32f1xx_hal_dac.o(i.HAL_DAC_Init)
    HAL_DAC_MspInit                          0x08001309   Thumb Code    76  dac.o(i.HAL_DAC_MspInit)
    HAL_DAC_SetValue                         0x08001361   Thumb Code    32  stm32f1xx_hal_dac.o(i.HAL_DAC_SetValue)
    HAL_DAC_Start                            0x08001381   Thumb Code    94  stm32f1xx_hal_dac.o(i.HAL_DAC_Start)
    HAL_DMA_Abort                            0x080013df   Thumb Code    70  stm32f1xx_hal_dma.o(i.HAL_DMA_Abort)
    HAL_DMA_Abort_IT                         0x08001425   Thumb Code   328  stm32f1xx_hal_dma.o(i.HAL_DMA_Abort_IT)
    HAL_DMA_IRQHandler                       0x08001575   Thumb Code   640  stm32f1xx_hal_dma.o(i.HAL_DMA_IRQHandler)
    HAL_DMA_Init                             0x08001815   Thumb Code   116  stm32f1xx_hal_dma.o(i.HAL_DMA_Init)
    HAL_DMA_Start_IT                         0x08001895   Thumb Code   116  stm32f1xx_hal_dma.o(i.HAL_DMA_Start_IT)
    HAL_Delay                                0x08001909   Thumb Code    32  stm32f1xx_hal.o(i.HAL_Delay)
    HAL_GPIO_EXTI_Callback                   0x0800192d   Thumb Code   408  func.o(i.HAL_GPIO_EXTI_Callback)
    HAL_GPIO_EXTI_IRQHandler                 0x08001ad5   Thumb Code    18  stm32f1xx_hal_gpio.o(i.HAL_GPIO_EXTI_IRQHandler)
    HAL_GPIO_Init                            0x08001aed   Thumb Code   492  stm32f1xx_hal_gpio.o(i.HAL_GPIO_Init)
    HAL_GPIO_ReadPin                         0x08001d01   Thumb Code    14  stm32f1xx_hal_gpio.o(i.HAL_GPIO_ReadPin)
    HAL_GPIO_WritePin                        0x08001d0f   Thumb Code    14  stm32f1xx_hal_gpio.o(i.HAL_GPIO_WritePin)
    HAL_GetTick                              0x08001d1d   Thumb Code     6  stm32f1xx_hal.o(i.HAL_GetTick)
    HAL_IncTick                              0x08001d29   Thumb Code    12  stm32f1xx_hal.o(i.HAL_IncTick)
    HAL_Init                                 0x08001d39   Thumb Code    32  stm32f1xx_hal.o(i.HAL_Init)
    HAL_InitTick                             0x08001d5d   Thumb Code    98  stm32f1xx_hal_timebase_tim.o(i.HAL_InitTick)
    HAL_MspInit                              0x08001dd1   Thumb Code    62  stm32f1xx_hal_msp.o(i.HAL_MspInit)
    HAL_NVIC_EnableIRQ                       0x08001e19   Thumb Code    26  stm32f1xx_hal_cortex.o(i.HAL_NVIC_EnableIRQ)
    HAL_NVIC_SetPriority                     0x08001e35   Thumb Code    60  stm32f1xx_hal_cortex.o(i.HAL_NVIC_SetPriority)
    HAL_NVIC_SetPriorityGrouping             0x08001e75   Thumb Code    26  stm32f1xx_hal_cortex.o(i.HAL_NVIC_SetPriorityGrouping)
    HAL_RCCEx_GetPeriphCLKFreq               0x08001e99   Thumb Code   206  stm32f1xx_hal_rcc_ex.o(i.HAL_RCCEx_GetPeriphCLKFreq)
    HAL_RCCEx_PeriphCLKConfig                0x08001f89   Thumb Code   256  stm32f1xx_hal_rcc_ex.o(i.HAL_RCCEx_PeriphCLKConfig)
    HAL_RCC_ClockConfig                      0x08002095   Thumb Code   318  stm32f1xx_hal_rcc.o(i.HAL_RCC_ClockConfig)
    HAL_RCC_GetClockConfig                   0x080021e9   Thumb Code    52  stm32f1xx_hal_rcc.o(i.HAL_RCC_GetClockConfig)
    HAL_RCC_GetHCLKFreq                      0x08002225   Thumb Code     6  stm32f1xx_hal_rcc.o(i.HAL_RCC_GetHCLKFreq)
    HAL_RCC_GetPCLK1Freq                     0x08002231   Thumb Code    22  stm32f1xx_hal_rcc.o(i.HAL_RCC_GetPCLK1Freq)
    HAL_RCC_GetPCLK2Freq                     0x08002251   Thumb Code    22  stm32f1xx_hal_rcc.o(i.HAL_RCC_GetPCLK2Freq)
    HAL_RCC_GetSysClockFreq                  0x08002271   Thumb Code    82  stm32f1xx_hal_rcc.o(i.HAL_RCC_GetSysClockFreq)
    HAL_RCC_OscConfig                        0x080022e5   Thumb Code   882  stm32f1xx_hal_rcc.o(i.HAL_RCC_OscConfig)
    HAL_SPI_Init                             0x08002669   Thumb Code   180  stm32f1xx_hal_spi.o(i.HAL_SPI_Init)
    HAL_SPI_MspInit                          0x0800271d   Thumb Code    94  spi.o(i.HAL_SPI_MspInit)
    HAL_SPI_Transmit                         0x0800278d   Thumb Code   394  stm32f1xx_hal_spi.o(i.HAL_SPI_Transmit)
    HAL_TIMEx_BreakCallback                  0x08002917   Thumb Code     2  stm32f1xx_hal_tim_ex.o(i.HAL_TIMEx_BreakCallback)
    HAL_TIMEx_CommutCallback                 0x08002919   Thumb Code     2  stm32f1xx_hal_tim_ex.o(i.HAL_TIMEx_CommutCallback)
    HAL_TIMEx_MasterConfigSynchronization    0x0800291d   Thumb Code   102  stm32f1xx_hal_tim_ex.o(i.HAL_TIMEx_MasterConfigSynchronization)
    HAL_TIM_Base_Init                        0x08002999   Thumb Code    74  stm32f1xx_hal_tim.o(i.HAL_TIM_Base_Init)
    HAL_TIM_Base_MspInit                     0x080029e5   Thumb Code    96  tim.o(i.HAL_TIM_Base_MspInit)
    HAL_TIM_Base_Start_IT                    0x08002a51   Thumb Code    98  stm32f1xx_hal_tim.o(i.HAL_TIM_Base_Start_IT)
    HAL_TIM_ConfigClockSource                0x08002ac9   Thumb Code   226  stm32f1xx_hal_tim.o(i.HAL_TIM_ConfigClockSource)
    HAL_TIM_Encoder_Init                     0x08002bab   Thumb Code   176  stm32f1xx_hal_tim.o(i.HAL_TIM_Encoder_Init)
    HAL_TIM_Encoder_MspInit                  0x08002c5d   Thumb Code    76  tim.o(i.HAL_TIM_Encoder_MspInit)
    HAL_TIM_Encoder_Start                    0x08002cb5   Thumb Code   168  stm32f1xx_hal_tim.o(i.HAL_TIM_Encoder_Start)
    HAL_TIM_IC_CaptureCallback               0x08002d5d   Thumb Code     2  stm32f1xx_hal_tim.o(i.HAL_TIM_IC_CaptureCallback)
    HAL_TIM_IRQHandler                       0x08002d5f   Thumb Code   366  stm32f1xx_hal_tim.o(i.HAL_TIM_IRQHandler)
    HAL_TIM_MspPostInit                      0x08002ecd   Thumb Code   178  tim.o(i.HAL_TIM_MspPostInit)
    HAL_TIM_OC_ConfigChannel                 0x08002f99   Thumb Code    76  stm32f1xx_hal_tim.o(i.HAL_TIM_OC_ConfigChannel)
    HAL_TIM_OC_DelayElapsedCallback          0x08002fe5   Thumb Code     2  stm32f1xx_hal_tim.o(i.HAL_TIM_OC_DelayElapsedCallback)
    HAL_TIM_OC_Init                          0x08002fe7   Thumb Code    74  stm32f1xx_hal_tim.o(i.HAL_TIM_OC_Init)
    HAL_TIM_OC_MspInit                       0x08003031   Thumb Code    30  tim.o(i.HAL_TIM_OC_MspInit)
    HAL_TIM_PWM_ConfigChannel                0x08003059   Thumb Code   210  stm32f1xx_hal_tim.o(i.HAL_TIM_PWM_ConfigChannel)
    HAL_TIM_PWM_Init                         0x0800312b   Thumb Code    74  stm32f1xx_hal_tim.o(i.HAL_TIM_PWM_Init)
    HAL_TIM_PWM_MspInit                      0x08003175   Thumb Code     2  stm32f1xx_hal_tim.o(i.HAL_TIM_PWM_MspInit)
    HAL_TIM_PWM_PulseFinishedCallback        0x08003177   Thumb Code     2  stm32f1xx_hal_tim.o(i.HAL_TIM_PWM_PulseFinishedCallback)
    HAL_TIM_PWM_Start                        0x08003179   Thumb Code   178  stm32f1xx_hal_tim.o(i.HAL_TIM_PWM_Start)
    HAL_TIM_PWM_Stop                         0x08003241   Thumb Code   116  stm32f1xx_hal_tim.o(i.HAL_TIM_PWM_Stop)
    HAL_TIM_PeriodElapsedCallback            0x080032bd   Thumb Code    14  main.o(i.HAL_TIM_PeriodElapsedCallback)
    HAL_TIM_TriggerCallback                  0x080032d1   Thumb Code     2  stm32f1xx_hal_tim.o(i.HAL_TIM_TriggerCallback)
    HAL_UART_DMAStop                         0x080032d3   Thumb Code    88  stm32f1xx_hal_uart.o(i.HAL_UART_DMAStop)
    HAL_UART_ErrorCallback                   0x0800332b   Thumb Code     2  stm32f1xx_hal_uart.o(i.HAL_UART_ErrorCallback)
    HAL_UART_IRQHandler                      0x0800332d   Thumb Code   272  stm32f1xx_hal_uart.o(i.HAL_UART_IRQHandler)
    HAL_UART_Init                            0x08003441   Thumb Code   100  stm32f1xx_hal_uart.o(i.HAL_UART_Init)
    HAL_UART_MspInit                         0x080034a5   Thumb Code   198  usart.o(i.HAL_UART_MspInit)
    HAL_UART_Receive_DMA                     0x08003581   Thumb Code   142  stm32f1xx_hal_uart.o(i.HAL_UART_Receive_DMA)
    HAL_UART_RxCpltCallback                  0x0800361d   Thumb Code     2  stm32f1xx_hal_uart.o(i.HAL_UART_RxCpltCallback)
    HAL_UART_RxHalfCpltCallback              0x0800361f   Thumb Code     2  stm32f1xx_hal_uart.o(i.HAL_UART_RxHalfCpltCallback)
    HAL_UART_Transmit                        0x08003621   Thumb Code   190  stm32f1xx_hal_uart.o(i.HAL_UART_Transmit)
    HAL_UART_TxCpltCallback                  0x080036df   Thumb Code     2  stm32f1xx_hal_uart.o(i.HAL_UART_TxCpltCallback)
    HARDWARE_INIT                            0x080036e1   Thumb Code   196  func.o(i.HARDWARE_INIT)
    HardFault_Handler                        0x080037d9   Thumb Code     2  stm32f1xx_it.o(i.HardFault_Handler)
    INA226_GetShuntVoltage                   0x080037db   Thumb Code    28  ina226.o(i.INA226_GetShuntVoltage)
    INA226_GetVoltage                        0x080037f7   Thumb Code    22  ina226.o(i.INA226_GetVoltage)
    INA226_Get_Power                         0x0800380d   Thumb Code    22  ina226.o(i.INA226_Get_Power)
    INA226_Init                              0x08003823   Thumb Code    40  ina226.o(i.INA226_Init)
    INA226_ReadData                          0x0800384b   Thumb Code    52  ina226.o(i.INA226_ReadData)
    INA226_SendData                          0x0800387f   Thumb Code    60  ina226.o(i.INA226_SendData)
    INA226_SetRegPointer                     0x080038bb   Thumb Code    38  ina226.o(i.INA226_SetRegPointer)
    INTERFACE_SHOW                           0x080038e1   Thumb Code   490  func.o(i.INTERFACE_SHOW)
    LCD_Clear                                0x08003afd   Thumb Code   122  lcd.o(i.LCD_Clear)
    LCD_DrawLine                             0x08003b89   Thumb Code   148  gui.o(i.LCD_DrawLine)
    LCD_DrawPoint                            0x08003c1d   Thumb Code    18  lcd.o(i.LCD_DrawPoint)
    LCD_Init                                 0x08003c35   Thumb Code   376  lcd.o(i.LCD_Init)
    LCD_RESET                                0x08003dad   Thumb Code    38  lcd.o(i.LCD_RESET)
    LCD_SetCursor                            0x08003ddd   Thumb Code     8  lcd.o(i.LCD_SetCursor)
    LCD_SetWindows                           0x08003de5   Thumb Code   122  lcd.o(i.LCD_SetWindows)
    LCD_ShowChar                             0x08003e65   Thumb Code   706  gui.o(i.LCD_ShowChar)
    LCD_ShowString                           0x08004145   Thumb Code    90  gui.o(i.LCD_ShowString)
    LCD_WR_DATA                              0x080041ad   Thumb Code    38  lcd.o(i.LCD_WR_DATA)
    LCD_WR_REG                               0x080041e1   Thumb Code    38  lcd.o(i.LCD_WR_REG)
    LCD_WriteRAM_Prepare                     0x08004215   Thumb Code     8  lcd.o(i.LCD_WriteRAM_Prepare)
    LCD_WriteReg                             0x08004221   Thumb Code    18  lcd.o(i.LCD_WriteReg)
    LCD_direction                            0x08004235   Thumb Code   116  lcd.o(i.LCD_direction)
    LED_COLOR                                0x080042ad   Thumb Code    96  led.o(i.LED_COLOR)
    Lcd_WriteData_16Bit                      0x08004311   Thumb Code    56  lcd.o(i.Lcd_WriteData_16Bit)
    MX_ADC1_Init                             0x08004355   Thumb Code    70  adc.o(i.MX_ADC1_Init)
    MX_DAC_Init                              0x080043a5   Thumb Code    66  dac.o(i.MX_DAC_Init)
    MX_DMA_Init                              0x080043f1   Thumb Code    72  dma.o(i.MX_DMA_Init)
    MX_GPIO_Init                             0x0800443d   Thumb Code   372  gpio.o(i.MX_GPIO_Init)
    MX_SPI1_Init                             0x080045cd   Thumb Code    64  spi.o(i.MX_SPI1_Init)
    MX_TIM2_Init                             0x08004615   Thumb Code   146  tim.o(i.MX_TIM2_Init)
    MX_TIM3_Init                             0x080046ad   Thumb Code   196  tim.o(i.MX_TIM3_Init)
    MX_TIM4_Init                             0x08004779   Thumb Code   102  tim.o(i.MX_TIM4_Init)
    MX_TIM5_Init                             0x080047e9   Thumb Code   100  tim.o(i.MX_TIM5_Init)
    MX_TIM6_Init                             0x08004855   Thumb Code    62  tim.o(i.MX_TIM6_Init)
    MX_USART1_UART_Init                      0x0800489d   Thumb Code    48  usart.o(i.MX_USART1_UART_Init)
    MYIIC_IIC_Ack                            0x080048d5   Thumb Code    72  my_iic.o(i.MYIIC_IIC_Ack)
    MYIIC_IIC_Init                           0x08004921   Thumb Code    34  my_iic.o(i.MYIIC_IIC_Init)
    MYIIC_IIC_NAck                           0x08004949   Thumb Code    70  my_iic.o(i.MYIIC_IIC_NAck)
    MYIIC_IIC_Read_Byte                      0x08004995   Thumb Code   100  my_iic.o(i.MYIIC_IIC_Read_Byte)
    MYIIC_IIC_Send_Byte                      0x080049fd   Thumb Code   102  my_iic.o(i.MYIIC_IIC_Send_Byte)
    MYIIC_IIC_Start                          0x08004a69   Thumb Code    70  my_iic.o(i.MYIIC_IIC_Start)
    MYIIC_IIC_Stop                           0x08004ab5   Thumb Code    60  my_iic.o(i.MYIIC_IIC_Stop)
    MYIIC_IIC_Wait_Ack                       0x08004af5   Thumb Code    90  my_iic.o(i.MYIIC_IIC_Wait_Ack)
    MemManage_Handler                        0x08004b55   Thumb Code     2  stm32f1xx_it.o(i.MemManage_Handler)
    NMI_Handler                              0x08004b57   Thumb Code     2  stm32f1xx_it.o(i.NMI_Handler)
    REC_ANALY                                0x08004b7d   Thumb Code   128  com.o(i.REC_ANALY)
    REG_I_FUN                                0x08004c51   Thumb Code     2  com.o(i.REG_I_FUN)
    REG_OUT_STA_FUN                          0x08004c53   Thumb Code     2  com.o(i.REG_OUT_STA_FUN)
    REG_P_FUN                                0x08004c55   Thumb Code     2  com.o(i.REG_P_FUN)
    REG_SET_I_FUN                            0x08004c57   Thumb Code     2  com.o(i.REG_SET_I_FUN)
    REG_SET_V_FUN                            0x08004c59   Thumb Code     2  com.o(i.REG_SET_V_FUN)
    REG_V_FUN                                0x08004c5d   Thumb Code    78  com.o(i.REG_V_FUN)
    SC8813_Get_Data                          0x08004cc9   Thumb Code    50  sc8813.o(i.SC8813_Get_Data)
    SC8813_INIT                              0x08004d01   Thumb Code    58  sc8813.o(i.SC8813_INIT)
    SC8813_ReadData                          0x08004d3b   Thumb Code    36  sc8813.o(i.SC8813_ReadData)
    SC8813_SendData                          0x08004d5f   Thumb Code    50  sc8813.o(i.SC8813_SendData)
    SC8813_SetRegPointer                     0x08004d91   Thumb Code    38  sc8813.o(i.SC8813_SetRegPointer)
    SET_DAC_VAL                              0x08004db9   Thumb Code    30  func.o(i.SET_DAC_VAL)
    SOFTWARE_INIT                            0x08004ddd   Thumb Code    76  func.o(i.SOFTWARE_INIT)
    SysTick_Handler                          0x08004f15   Thumb Code    38  port.o(i.SysTick_Handler)
    SystemClock_Config                       0x08004f41   Thumb Code   120  main.o(i.SystemClock_Config)
    SystemInit                               0x08004fb9   Thumb Code     2  system_stm32f1xx.o(i.SystemInit)
    TIM1_UP_IRQHandler                       0x08004fbd   Thumb Code     6  stm32f1xx_it.o(i.TIM1_UP_IRQHandler)
    TIM6_IRQHandler                          0x08004fc9   Thumb Code     6  stm32f1xx_it.o(i.TIM6_IRQHandler)
    TIME_TASK                                0x08004fd5   Thumb Code    40  func.o(i.TIME_TASK)
    TIM_Base_SetConfig                       0x08005001   Thumb Code   124  stm32f1xx_hal_tim.o(i.TIM_Base_SetConfig)
    TIM_CCxChannelCmd                        0x08005091   Thumb Code    26  stm32f1xx_hal_tim.o(i.TIM_CCxChannelCmd)
    TIM_ETR_SetConfig                        0x080050ab   Thumb Code    20  stm32f1xx_hal_tim.o(i.TIM_ETR_SetConfig)
    TIM_OC2_SetConfig                        0x08005139   Thumb Code   106  stm32f1xx_hal_tim.o(i.TIM_OC2_SetConfig)
    UART_RxIdleCallback                      0x08005431   Thumb Code   104  com.o(i.UART_RxIdleCallback)
    UPDATA_SHOW                              0x08005645   Thumb Code  3006  func.o(i.UPDATA_SHOW)
    USART1_IRQHandler                        0x08006209   Thumb Code    18  stm32f1xx_it.o(i.USART1_IRQHandler)
    USER_ADC_SetValue                        0x08006221   Thumb Code    86  func.o(i.USER_ADC_SetValue)
    UsageFault_Handler                       0x0800627d   Thumb Code     2  stm32f1xx_it.o(i.UsageFault_Handler)
    __0printf                                0x08006281   Thumb Code    22  printfa.o(i.__0printf)
    __1printf                                0x08006281   Thumb Code     0  printfa.o(i.__0printf)
    __2printf                                0x08006281   Thumb Code     0  printfa.o(i.__0printf)
    __c89printf                              0x08006281   Thumb Code     0  printfa.o(i.__0printf)
    printf                                   0x08006281   Thumb Code     0  printfa.o(i.__0printf)
    __0sprintf                               0x080062a1   Thumb Code    34  printfa.o(i.__0sprintf)
    __1sprintf                               0x080062a1   Thumb Code     0  printfa.o(i.__0sprintf)
    __2sprintf                               0x080062a1   Thumb Code     0  printfa.o(i.__0sprintf)
    __c89sprintf                             0x080062a1   Thumb Code     0  printfa.o(i.__0sprintf)
    sprintf                                  0x080062a1   Thumb Code     0  printfa.o(i.__0sprintf)
    __scatterload_copy                       0x080062e9   Thumb Code    14  handlers.o(i.__scatterload_copy)
    __scatterload_null                       0x080062f7   Thumb Code     2  handlers.o(i.__scatterload_null)
    __scatterload_zeroinit                   0x080062f9   Thumb Code    14  handlers.o(i.__scatterload_zeroinit)
    _draw_circle_8                           0x08006307   Thumb Code   132  gui.o(i._draw_circle_8)
    delay_nus                                0x08006c2b   Thumb Code    24  my_iic.o(i.delay_nus)
    fputc                                    0x08006c45   Thumb Code    18  main.o(i.fputc)
    gui_circle                               0x08006c5d   Thumb Code   124  gui.o(i.gui_circle)
    main                                     0x08006cd9   Thumb Code    96  main.o(i.main)
    uxListRemove                             0x08006d81   Thumb Code    38  list.o(i.uxListRemove)
    vListInsertEnd                           0x08006da7   Thumb Code    24  list.o(i.vListInsertEnd)
    vTaskSwitchContext                       0x08006dc1   Thumb Code    86  tasks.o(i.vTaskSwitchContext)
    xTaskIncrementTick                       0x08006e21   Thumb Code   196  tasks.o(i.xTaskIncrementTick)
    AHBPrescTable                            0x08006eec   Data          16  system_stm32f1xx.o(.constdata)
    APBPrescTable                            0x08006efc   Data           8  system_stm32f1xx.o(.constdata)
    asc2_1206                                0x08006f04   Data        1140  gui.o(.constdata)
    asc2_1608                                0x08007378   Data        1520  gui.o(.constdata)
    font32                                   0x08007968   Data        6080  gui.o(.constdata)
    font64                                   0x08009128   Data        3328  gui.o(.constdata)
    tfont16                                  0x08009e28   Data         340  gui.o(.constdata)
    Region$$Table$$Base                      0x08009f7c   Number         0  anon$$obj.o(Region$$Table)
    Region$$Table$$Limit                     0x08009f9c   Number         0  anon$$obj.o(Region$$Table)
    VAL                                      0x20000000   Data           2  main.o(.data)
    uwTickFreq                               0x20000004   Data           1  stm32f1xx_hal.o(.data)
    uwTickPrio                               0x20000008   Data           4  stm32f1xx_hal.o(.data)
    uwTick                                   0x2000000c   Data           4  stm32f1xx_hal.o(.data)
    SystemCoreClock                          0x20000010   Data           4  system_stm32f1xx.o(.data)
    SYS                                      0x2000001a   Data           8  func.o(.data)
    POINT_COLOR                              0x20000022   Data           2  lcd.o(.data)
    BACK_COLOR                               0x20000024   Data           2  lcd.o(.data)
    temp                                     0x20000026   Data           2  sc8813.o(.data)
    data_length                              0x20000028   Data           1  com.o(.data)
    LED                                      0x2000002c   Data           4  led.o(.data)
    pxCurrentTCB                             0x20000030   Data           4  tasks.o(.data)
    __stdout                                 0x2000006c   Data           4  stdout.o(.data)
    hadc1                                    0x20000070   Data          48  adc.o(.bss)
    hdma_adc1                                0x200000a0   Data          68  adc.o(.bss)
    hdac                                     0x200000e4   Data          20  dac.o(.bss)
    hspi1                                    0x200000f8   Data          88  spi.o(.bss)
    htim2                                    0x20000150   Data          72  tim.o(.bss)
    htim3                                    0x20000198   Data          72  tim.o(.bss)
    htim4                                    0x200001e0   Data          72  tim.o(.bss)
    htim5                                    0x20000228   Data          72  tim.o(.bss)
    htim6                                    0x20000270   Data          72  tim.o(.bss)
    huart1                                   0x200002b8   Data          64  usart.o(.bss)
    hdma_usart1_rx                           0x200002f8   Data          68  usart.o(.bss)
    hdma_usart1_tx                           0x2000033c   Data          68  usart.o(.bss)
    htim1                                    0x20000380   Data          72  stm32f1xx_hal_timebase_tim.o(.bss)
    IO                                       0x200003c8   Data          56  func.o(.bss)
    ADC_DATA                                 0x20000400   Data         360  func.o(.bss)
    BUF_VOUT                                 0x20000568   Data         280  func.o(.bss)
    BUF_IOUT                                 0x20000680   Data         280  func.o(.bss)
    lcddev                                   0x20000798   Data          16  lcd.o(.bss)
    COM                                      0x200007a8   Data         261  com.o(.bss)
    receive_buf                              0x200008ad   Data         255  com.o(.bss)
    tramsmission_buf                         0x200009ac   Data         255  com.o(.bss)
    __initial_sp                             0x20000fa0   Data           0  startup_stm32f103xe.o(STACK)



==============================================================================

Memory Map of the image

  Image Entry point : 0x08000131

  Load Region LR_IROM1 (Base: 0x08000000, Size: 0x0000a00c, Max: 0x00080000, ABSOLUTE)

    Execution Region ER_IROM1 (Exec base: 0x08000000, Load base: 0x08000000, Size: 0x00009f9c, Max: 0x00080000, ABSOLUTE)

    Exec Addr    Load Addr    Size         Type   Attr      Idx    E Section Name        Object

    0x08000000   0x08000000   0x00000130   Data   RO            3    RESET               startup_stm32f103xe.o
    0x08000130   0x08000130   0x00000000   Code   RO         6209  * .ARM.Collect$$$$00000000  mc_w.l(entry.o)
    0x08000130   0x08000130   0x00000004   Code   RO         6509    .ARM.Collect$$$$00000001  mc_w.l(entry2.o)
    0x08000134   0x08000134   0x00000004   Code   RO         6512    .ARM.Collect$$$$00000004  mc_w.l(entry5.o)
    0x08000138   0x08000138   0x00000000   Code   RO         6514    .ARM.Collect$$$$00000008  mc_w.l(entry7b.o)
    0x08000138   0x08000138   0x00000000   Code   RO         6516    .ARM.Collect$$$$0000000A  mc_w.l(entry8b.o)
    0x08000138   0x08000138   0x00000008   Code   RO         6517    .ARM.Collect$$$$0000000B  mc_w.l(entry9a.o)
    0x08000140   0x08000140   0x00000004   Code   RO         6524    .ARM.Collect$$$$0000000E  mc_w.l(entry12b.o)
    0x08000144   0x08000144   0x00000000   Code   RO         6519    .ARM.Collect$$$$0000000F  mc_w.l(entry10a.o)
    0x08000144   0x08000144   0x00000000   Code   RO         6521    .ARM.Collect$$$$00000011  mc_w.l(entry11a.o)
    0x08000144   0x08000144   0x00000004   Code   RO         6510    .ARM.Collect$$$$00002712  mc_w.l(entry2.o)
    0x08000148   0x08000148   0x00000096   Code   RO         6132    .emb_text           port.o
    0x080001de   0x080001de   0x00000002   PAD
    0x080001e0   0x080001e0   0x00000024   Code   RO            4    .text               startup_stm32f103xe.o
    0x08000204   0x08000204   0x00000020   Code   RO         6212    .text               mc_w.l(llushr.o)
    0x08000224   0x08000224   0x00000024   Code   RO         6218    .text               mc_w.l(memseta.o)
    0x08000248   0x08000248   0x00000064   Code   RO         6483    .text               mf_w.l(fmul.o)
    0x080002ac   0x080002ac   0x0000007c   Code   RO         6485    .text               mf_w.l(fdiv.o)
    0x08000328   0x08000328   0x000000e4   Code   RO         6487    .text               mf_w.l(dmul.o)
    0x0800040c   0x0800040c   0x000000de   Code   RO         6489    .text               mf_w.l(ddiv.o)
    0x080004ea   0x080004ea   0x0000002e   Code   RO         6491    .text               mf_w.l(dscalb.o)
    0x08000518   0x08000518   0x0000000a   Code   RO         6495    .text               mf_w.l(ffltui.o)
    0x08000522   0x08000522   0x00000028   Code   RO         6499    .text               mf_w.l(ffixui.o)
    0x0800054a   0x0800054a   0x00000032   Code   RO         6501    .text               mf_w.l(dfixui.o)
    0x0800057c   0x0800057c   0x00000026   Code   RO         6503    .text               mf_w.l(f2d.o)
    0x080005a2   0x080005a2   0x00000002   PAD
    0x080005a4   0x080005a4   0x00000030   Code   RO         6505    .text               mf_w.l(cdrcmple.o)
    0x080005d4   0x080005d4   0x0000002c   Code   RO         6526    .text               mc_w.l(uidiv.o)
    0x08000600   0x08000600   0x00000062   Code   RO         6528    .text               mc_w.l(uldiv.o)
    0x08000662   0x08000662   0x00000000   Code   RO         6530    .text               mc_w.l(iusefp.o)
    0x08000662   0x08000662   0x0000006e   Code   RO         6531    .text               mf_w.l(fepilogue.o)
    0x080006d0   0x080006d0   0x000000ba   Code   RO         6533    .text               mf_w.l(depilogue.o)
    0x0800078a   0x0800078a   0x0000014e   Code   RO         6535    .text               mf_w.l(dadd.o)
    0x080008d8   0x080008d8   0x00000030   Code   RO         6537    .text               mf_w.l(dfixul.o)
    0x08000908   0x08000908   0x00000024   Code   RO         6539    .text               mc_w.l(init.o)
    0x0800092c   0x0800092c   0x0000001e   Code   RO         6541    .text               mc_w.l(llshl.o)
    0x0800094a   0x0800094a   0x00000024   Code   RO         6543    .text               mc_w.l(llsshr.o)
    0x0800096e   0x0800096e   0x0000004a   Code   RO          862    i.ADC_ConversionStop_Disable  stm32f1xx_hal_adc.o
    0x080009b8   0x080009b8   0x0000004e   Code   RO          863    i.ADC_DMAConvCplt   stm32f1xx_hal_adc.o
    0x08000a06   0x08000a06   0x0000001a   Code   RO          864    i.ADC_DMAError      stm32f1xx_hal_adc.o
    0x08000a20   0x08000a20   0x0000000a   Code   RO          865    i.ADC_DMAHalfConvCplt  stm32f1xx_hal_adc.o
    0x08000a2a   0x08000a2a   0x00000002   PAD
    0x08000a2c   0x08000a2c   0x00000074   Code   RO          866    i.ADC_Enable        stm32f1xx_hal_adc.o
    0x08000aa0   0x08000aa0   0x000000c8   Code   RO         4042    i.ADJUST_IV         func.o
    0x08000b68   0x08000b68   0x0000005c   Code   RO         4043    i.BEEP              func.o
    0x08000bc4   0x08000bc4   0x00000002   Code   RO          657    i.BusFault_Handler  stm32f1xx_it.o
    0x08000bc6   0x08000bc6   0x00000002   PAD
    0x08000bc8   0x08000bc8   0x00000050   Code   RO         4692    i.DATA_FUN          com.o
    0x08000c18   0x08000c18   0x0000000c   Code   RO          658    i.DMA1_Channel1_IRQHandler  stm32f1xx_it.o
    0x08000c24   0x08000c24   0x0000000c   Code   RO          659    i.DMA1_Channel4_IRQHandler  stm32f1xx_it.o
    0x08000c30   0x08000c30   0x0000000c   Code   RO          660    i.DMA1_Channel5_IRQHandler  stm32f1xx_it.o
    0x08000c3c   0x08000c3c   0x0000002c   Code   RO         1521    i.DMA_SetConfig     stm32f1xx_hal_dma.o
    0x08000c68   0x08000c68   0x00000002   Code   RO          661    i.DebugMon_Handler  stm32f1xx_it.o
    0x08000c6a   0x08000c6a   0x0000001e   Code   RO          662    i.EXTI15_10_IRQHandler  stm32f1xx_it.o
    0x08000c88   0x08000c88   0x00000016   Code   RO          663    i.EXTI9_5_IRQHandler  stm32f1xx_it.o
    0x08000c9e   0x08000c9e   0x00000002   Code   RO           13    i.Error_Handler     main.o
    0x08000ca0   0x08000ca0   0x000000e8   Code   RO         4328    i.GUI_DrawFont16    gui.o
    0x08000d88   0x08000d88   0x000000e4   Code   RO         1042    i.HAL_ADCEx_Calibration_Start  stm32f1xx_hal_adc_ex.o
    0x08000e6c   0x08000e6c   0x00000108   Code   RO          868    i.HAL_ADC_ConfigChannel  stm32f1xx_hal_adc.o
    0x08000f74   0x08000f74   0x00000002   Code   RO          869    i.HAL_ADC_ConvCpltCallback  stm32f1xx_hal_adc.o
    0x08000f76   0x08000f76   0x00000002   Code   RO          870    i.HAL_ADC_ConvHalfCpltCallback  stm32f1xx_hal_adc.o
    0x08000f78   0x08000f78   0x00000002   Code   RO          872    i.HAL_ADC_ErrorCallback  stm32f1xx_hal_adc.o
    0x08000f7a   0x08000f7a   0x00000002   PAD
    0x08000f7c   0x08000f7c   0x00000124   Code   RO          877    i.HAL_ADC_Init      stm32f1xx_hal_adc.o
    0x080010a0   0x080010a0   0x000000d0   Code   RO          370    i.HAL_ADC_MspInit   adc.o
    0x08001170   0x08001170   0x00000120   Code   RO          884    i.HAL_ADC_Start_DMA  stm32f1xx_hal_adc.o
    0x08001290   0x08001290   0x0000004e   Code   RO         2142    i.HAL_DAC_ConfigChannel  stm32f1xx_hal_dac.o
    0x080012de   0x080012de   0x0000002a   Code   RO         2152    i.HAL_DAC_Init      stm32f1xx_hal_dac.o
    0x08001308   0x08001308   0x00000058   Code   RO          412    i.HAL_DAC_MspInit   dac.o
    0x08001360   0x08001360   0x00000020   Code   RO         2155    i.HAL_DAC_SetValue  stm32f1xx_hal_dac.o
    0x08001380   0x08001380   0x0000005e   Code   RO         2156    i.HAL_DAC_Start     stm32f1xx_hal_dac.o
    0x080013de   0x080013de   0x00000046   Code   RO         1522    i.HAL_DMA_Abort     stm32f1xx_hal_dma.o
    0x08001424   0x08001424   0x00000150   Code   RO         1523    i.HAL_DMA_Abort_IT  stm32f1xx_hal_dma.o
    0x08001574   0x08001574   0x000002a0   Code   RO         1527    i.HAL_DMA_IRQHandler  stm32f1xx_hal_dma.o
    0x08001814   0x08001814   0x00000080   Code   RO         1528    i.HAL_DMA_Init      stm32f1xx_hal_dma.o
    0x08001894   0x08001894   0x00000074   Code   RO         1532    i.HAL_DMA_Start_IT  stm32f1xx_hal_dma.o
    0x08001908   0x08001908   0x00000024   Code   RO         1145    i.HAL_Delay         stm32f1xx_hal.o
    0x0800192c   0x0800192c   0x000001a8   Code   RO         4044    i.HAL_GPIO_EXTI_Callback  func.o
    0x08001ad4   0x08001ad4   0x00000018   Code   RO         1457    i.HAL_GPIO_EXTI_IRQHandler  stm32f1xx_hal_gpio.o
    0x08001aec   0x08001aec   0x00000214   Code   RO         1458    i.HAL_GPIO_Init     stm32f1xx_hal_gpio.o
    0x08001d00   0x08001d00   0x0000000e   Code   RO         1460    i.HAL_GPIO_ReadPin  stm32f1xx_hal_gpio.o
    0x08001d0e   0x08001d0e   0x0000000e   Code   RO         1462    i.HAL_GPIO_WritePin  stm32f1xx_hal_gpio.o
    0x08001d1c   0x08001d1c   0x0000000c   Code   RO         1149    i.HAL_GetTick       stm32f1xx_hal.o
    0x08001d28   0x08001d28   0x00000010   Code   RO         1155    i.HAL_IncTick       stm32f1xx_hal.o
    0x08001d38   0x08001d38   0x00000024   Code   RO         1156    i.HAL_Init          stm32f1xx_hal.o
    0x08001d5c   0x08001d5c   0x00000074   Code   RO          787    i.HAL_InitTick      stm32f1xx_hal_timebase_tim.o
    0x08001dd0   0x08001dd0   0x00000048   Code   RO          763    i.HAL_MspInit       stm32f1xx_hal_msp.o
    0x08001e18   0x08001e18   0x0000001a   Code   RO         1618    i.HAL_NVIC_EnableIRQ  stm32f1xx_hal_cortex.o
    0x08001e32   0x08001e32   0x00000002   PAD
    0x08001e34   0x08001e34   0x00000040   Code   RO         1624    i.HAL_NVIC_SetPriority  stm32f1xx_hal_cortex.o
    0x08001e74   0x08001e74   0x00000024   Code   RO         1625    i.HAL_NVIC_SetPriorityGrouping  stm32f1xx_hal_cortex.o
    0x08001e98   0x08001e98   0x000000f0   Code   RO         1420    i.HAL_RCCEx_GetPeriphCLKFreq  stm32f1xx_hal_rcc_ex.o
    0x08001f88   0x08001f88   0x0000010c   Code   RO         1421    i.HAL_RCCEx_PeriphCLKConfig  stm32f1xx_hal_rcc_ex.o
    0x08002094   0x08002094   0x00000154   Code   RO         1313    i.HAL_RCC_ClockConfig  stm32f1xx_hal_rcc.o
    0x080021e8   0x080021e8   0x0000003c   Code   RO         1317    i.HAL_RCC_GetClockConfig  stm32f1xx_hal_rcc.o
    0x08002224   0x08002224   0x0000000c   Code   RO         1318    i.HAL_RCC_GetHCLKFreq  stm32f1xx_hal_rcc.o
    0x08002230   0x08002230   0x00000020   Code   RO         1320    i.HAL_RCC_GetPCLK1Freq  stm32f1xx_hal_rcc.o
    0x08002250   0x08002250   0x00000020   Code   RO         1321    i.HAL_RCC_GetPCLK2Freq  stm32f1xx_hal_rcc.o
    0x08002270   0x08002270   0x00000074   Code   RO         1322    i.HAL_RCC_GetSysClockFreq  stm32f1xx_hal_rcc.o
    0x080022e4   0x080022e4   0x00000384   Code   RO         1325    i.HAL_RCC_OscConfig  stm32f1xx_hal_rcc.o
    0x08002668   0x08002668   0x000000b4   Code   RO         2378    i.HAL_SPI_Init      stm32f1xx_hal_spi.o
    0x0800271c   0x0800271c   0x00000070   Code   RO          478    i.HAL_SPI_MspInit   spi.o
    0x0800278c   0x0800278c   0x0000018a   Code   RO         2386    i.HAL_SPI_Transmit  stm32f1xx_hal_spi.o
    0x08002916   0x08002916   0x00000002   Code   RO         3406    i.HAL_TIMEx_BreakCallback  stm32f1xx_hal_tim_ex.o
    0x08002918   0x08002918   0x00000002   Code   RO         3407    i.HAL_TIMEx_CommutCallback  stm32f1xx_hal_tim_ex.o
    0x0800291a   0x0800291a   0x00000002   PAD
    0x0800291c   0x0800291c   0x0000007c   Code   RO         3425    i.HAL_TIMEx_MasterConfigSynchronization  stm32f1xx_hal_tim_ex.o
    0x08002998   0x08002998   0x0000004a   Code   RO         2691    i.HAL_TIM_Base_Init  stm32f1xx_hal_tim.o
    0x080029e2   0x080029e2   0x00000002   PAD
    0x080029e4   0x080029e4   0x0000006c   Code   RO          520    i.HAL_TIM_Base_MspInit  tim.o
    0x08002a50   0x08002a50   0x00000078   Code   RO         2696    i.HAL_TIM_Base_Start_IT  stm32f1xx_hal_tim.o
    0x08002ac8   0x08002ac8   0x000000e2   Code   RO         2700    i.HAL_TIM_ConfigClockSource  stm32f1xx_hal_tim.o
    0x08002baa   0x08002baa   0x000000b0   Code   RO         2712    i.HAL_TIM_Encoder_Init  stm32f1xx_hal_tim.o
    0x08002c5a   0x08002c5a   0x00000002   PAD
    0x08002c5c   0x08002c5c   0x00000058   Code   RO          522    i.HAL_TIM_Encoder_MspInit  tim.o
    0x08002cb4   0x08002cb4   0x000000a8   Code   RO         2715    i.HAL_TIM_Encoder_Start  stm32f1xx_hal_tim.o
    0x08002d5c   0x08002d5c   0x00000002   Code   RO         2725    i.HAL_TIM_IC_CaptureCallback  stm32f1xx_hal_tim.o
    0x08002d5e   0x08002d5e   0x0000016e   Code   RO         2739    i.HAL_TIM_IRQHandler  stm32f1xx_hal_tim.o
    0x08002ecc   0x08002ecc   0x000000cc   Code   RO          523    i.HAL_TIM_MspPostInit  tim.o
    0x08002f98   0x08002f98   0x0000004c   Code   RO         2740    i.HAL_TIM_OC_ConfigChannel  stm32f1xx_hal_tim.o
    0x08002fe4   0x08002fe4   0x00000002   Code   RO         2742    i.HAL_TIM_OC_DelayElapsedCallback  stm32f1xx_hal_tim.o
    0x08002fe6   0x08002fe6   0x0000004a   Code   RO         2744    i.HAL_TIM_OC_Init   stm32f1xx_hal_tim.o
    0x08003030   0x08003030   0x00000028   Code   RO          525    i.HAL_TIM_OC_MspInit  tim.o
    0x08003058   0x08003058   0x000000d2   Code   RO         2763    i.HAL_TIM_PWM_ConfigChannel  stm32f1xx_hal_tim.o
    0x0800312a   0x0800312a   0x0000004a   Code   RO         2766    i.HAL_TIM_PWM_Init  stm32f1xx_hal_tim.o
    0x08003174   0x08003174   0x00000002   Code   RO         2768    i.HAL_TIM_PWM_MspInit  stm32f1xx_hal_tim.o
    0x08003176   0x08003176   0x00000002   Code   RO         2769    i.HAL_TIM_PWM_PulseFinishedCallback  stm32f1xx_hal_tim.o
    0x08003178   0x08003178   0x000000c8   Code   RO         2771    i.HAL_TIM_PWM_Start  stm32f1xx_hal_tim.o
    0x08003240   0x08003240   0x0000007c   Code   RO         2774    i.HAL_TIM_PWM_Stop  stm32f1xx_hal_tim.o
    0x080032bc   0x080032bc   0x00000014   Code   RO           14    i.HAL_TIM_PeriodElapsedCallback  main.o
    0x080032d0   0x080032d0   0x00000002   Code   RO         2782    i.HAL_TIM_TriggerCallback  stm32f1xx_hal_tim.o
    0x080032d2   0x080032d2   0x00000058   Code   RO         3692    i.HAL_UART_DMAStop  stm32f1xx_hal_uart.o
    0x0800332a   0x0800332a   0x00000002   Code   RO         3694    i.HAL_UART_ErrorCallback  stm32f1xx_hal_uart.o
    0x0800332c   0x0800332c   0x00000114   Code   RO         3697    i.HAL_UART_IRQHandler  stm32f1xx_hal_uart.o
    0x08003440   0x08003440   0x00000064   Code   RO         3698    i.HAL_UART_Init     stm32f1xx_hal_uart.o
    0x080034a4   0x080034a4   0x000000dc   Code   RO          616    i.HAL_UART_MspInit  usart.o
    0x08003580   0x08003580   0x0000009c   Code   RO         3702    i.HAL_UART_Receive_DMA  stm32f1xx_hal_uart.o
    0x0800361c   0x0800361c   0x00000002   Code   RO         3704    i.HAL_UART_RxCpltCallback  stm32f1xx_hal_uart.o
    0x0800361e   0x0800361e   0x00000002   Code   RO         3705    i.HAL_UART_RxHalfCpltCallback  stm32f1xx_hal_uart.o
    0x08003620   0x08003620   0x000000be   Code   RO         3706    i.HAL_UART_Transmit  stm32f1xx_hal_uart.o
    0x080036de   0x080036de   0x00000002   Code   RO         3709    i.HAL_UART_TxCpltCallback  stm32f1xx_hal_uart.o
    0x080036e0   0x080036e0   0x000000f8   Code   RO         4045    i.HARDWARE_INIT     func.o
    0x080037d8   0x080037d8   0x00000002   Code   RO          664    i.HardFault_Handler  stm32f1xx_it.o
    0x080037da   0x080037da   0x0000001c   Code   RO         4450    i.INA226_GetShuntVoltage  ina226.o
    0x080037f6   0x080037f6   0x00000016   Code   RO         4452    i.INA226_GetVoltage  ina226.o
    0x0800380c   0x0800380c   0x00000016   Code   RO         4454    i.INA226_Get_Power  ina226.o
    0x08003822   0x08003822   0x00000028   Code   RO         4455    i.INA226_Init       ina226.o
    0x0800384a   0x0800384a   0x00000034   Code   RO         4456    i.INA226_ReadData   ina226.o
    0x0800387e   0x0800387e   0x0000003c   Code   RO         4457    i.INA226_SendData   ina226.o
    0x080038ba   0x080038ba   0x00000026   Code   RO         4458    i.INA226_SetRegPointer  ina226.o
    0x080038e0   0x080038e0   0x0000021c   Code   RO         4046    i.INTERFACE_SHOW    func.o
    0x08003afc   0x08003afc   0x0000008c   Code   RO         4141    i.LCD_Clear         lcd.o
    0x08003b88   0x08003b88   0x00000094   Code   RO         4331    i.LCD_DrawLine      gui.o
    0x08003c1c   0x08003c1c   0x00000018   Code   RO         4142    i.LCD_DrawPoint     lcd.o
    0x08003c34   0x08003c34   0x00000178   Code   RO         4144    i.LCD_Init          lcd.o
    0x08003dac   0x08003dac   0x00000030   Code   RO         4145    i.LCD_RESET         lcd.o
    0x08003ddc   0x08003ddc   0x00000008   Code   RO         4146    i.LCD_SetCursor     lcd.o
    0x08003de4   0x08003de4   0x00000080   Code   RO         4147    i.LCD_SetWindows    lcd.o
    0x08003e64   0x08003e64   0x000002e0   Code   RO         4333    i.LCD_ShowChar      gui.o
    0x08004144   0x08004144   0x00000068   Code   RO         4335    i.LCD_ShowString    gui.o
    0x080041ac   0x080041ac   0x00000034   Code   RO         4148    i.LCD_WR_DATA       lcd.o
    0x080041e0   0x080041e0   0x00000034   Code   RO         4149    i.LCD_WR_REG        lcd.o
    0x08004214   0x08004214   0x0000000c   Code   RO         4150    i.LCD_WriteRAM_Prepare  lcd.o
    0x08004220   0x08004220   0x00000012   Code   RO         4151    i.LCD_WriteReg      lcd.o
    0x08004232   0x08004232   0x00000002   PAD
    0x08004234   0x08004234   0x00000078   Code   RO         4152    i.LCD_direction     lcd.o
    0x080042ac   0x080042ac   0x00000064   Code   RO         4771    i.LED_COLOR         led.o
    0x08004310   0x08004310   0x00000044   Code   RO         4153    i.Lcd_WriteData_16Bit  lcd.o
    0x08004354   0x08004354   0x00000050   Code   RO          371    i.MX_ADC1_Init      adc.o
    0x080043a4   0x080043a4   0x0000004c   Code   RO          413    i.MX_DAC_Init       dac.o
    0x080043f0   0x080043f0   0x0000004c   Code   RO          453    i.MX_DMA_Init       dma.o
    0x0800443c   0x0800443c   0x00000190   Code   RO          289    i.MX_GPIO_Init      gpio.o
    0x080045cc   0x080045cc   0x00000048   Code   RO          479    i.MX_SPI1_Init      spi.o
    0x08004614   0x08004614   0x00000098   Code   RO          526    i.MX_TIM2_Init      tim.o
    0x080046ac   0x080046ac   0x000000cc   Code   RO          527    i.MX_TIM3_Init      tim.o
    0x08004778   0x08004778   0x00000070   Code   RO          528    i.MX_TIM4_Init      tim.o
    0x080047e8   0x080047e8   0x0000006c   Code   RO          529    i.MX_TIM5_Init      tim.o
    0x08004854   0x08004854   0x00000048   Code   RO          530    i.MX_TIM6_Init      tim.o
    0x0800489c   0x0800489c   0x00000038   Code   RO          617    i.MX_USART1_UART_Init  usart.o
    0x080048d4   0x080048d4   0x0000004c   Code   RO         4609    i.MYIIC_IIC_Ack     my_iic.o
    0x08004920   0x08004920   0x00000028   Code   RO         4610    i.MYIIC_IIC_Init    my_iic.o
    0x08004948   0x08004948   0x0000004c   Code   RO         4611    i.MYIIC_IIC_NAck    my_iic.o
    0x08004994   0x08004994   0x00000068   Code   RO         4612    i.MYIIC_IIC_Read_Byte  my_iic.o
    0x080049fc   0x080049fc   0x0000006c   Code   RO         4613    i.MYIIC_IIC_Send_Byte  my_iic.o
    0x08004a68   0x08004a68   0x0000004c   Code   RO         4614    i.MYIIC_IIC_Start   my_iic.o
    0x08004ab4   0x08004ab4   0x00000040   Code   RO         4615    i.MYIIC_IIC_Stop    my_iic.o
    0x08004af4   0x08004af4   0x00000060   Code   RO         4616    i.MYIIC_IIC_Wait_Ack  my_iic.o
    0x08004b54   0x08004b54   0x00000002   Code   RO          665    i.MemManage_Handler  stm32f1xx_it.o
    0x08004b56   0x08004b56   0x00000002   Code   RO          666    i.NMI_Handler       stm32f1xx_it.o
    0x08004b58   0x08004b58   0x00000024   Code   RO         1326    i.RCC_Delay         stm32f1xx_hal_rcc.o
    0x08004b7c   0x08004b7c   0x000000d4   Code   RO         4693    i.REC_ANALY         com.o
    0x08004c50   0x08004c50   0x00000002   Code   RO         4694    i.REG_I_FUN         com.o
    0x08004c52   0x08004c52   0x00000002   Code   RO         4695    i.REG_OUT_STA_FUN   com.o
    0x08004c54   0x08004c54   0x00000002   Code   RO         4696    i.REG_P_FUN         com.o
    0x08004c56   0x08004c56   0x00000002   Code   RO         4697    i.REG_SET_I_FUN     com.o
    0x08004c58   0x08004c58   0x00000002   Code   RO         4698    i.REG_SET_V_FUN     com.o
    0x08004c5a   0x08004c5a   0x00000002   PAD
    0x08004c5c   0x08004c5c   0x0000006c   Code   RO         4699    i.REG_V_FUN         com.o
    0x08004cc8   0x08004cc8   0x00000038   Code   RO         4558    i.SC8813_Get_Data   sc8813.o
    0x08004d00   0x08004d00   0x0000003a   Code   RO         4559    i.SC8813_INIT       sc8813.o
    0x08004d3a   0x08004d3a   0x00000024   Code   RO         4560    i.SC8813_ReadData   sc8813.o
    0x08004d5e   0x08004d5e   0x00000032   Code   RO         4561    i.SC8813_SendData   sc8813.o
    0x08004d90   0x08004d90   0x00000026   Code   RO         4562    i.SC8813_SetRegPointer  sc8813.o
    0x08004db6   0x08004db6   0x00000002   PAD
    0x08004db8   0x08004db8   0x00000024   Code   RO         4047    i.SET_DAC_VAL       func.o
    0x08004ddc   0x08004ddc   0x00000058   Code   RO         4048    i.SOFTWARE_INIT     func.o
    0x08004e34   0x08004e34   0x00000024   Code   RO         2416    i.SPI_EndRxTxTransaction  stm32f1xx_hal_spi.o
    0x08004e58   0x08004e58   0x000000bc   Code   RO         2421    i.SPI_WaitFlagStateUntilTimeout  stm32f1xx_hal_spi.o
    0x08004f14   0x08004f14   0x0000002c   Code   RO         6133    i.SysTick_Handler   port.o
    0x08004f40   0x08004f40   0x00000078   Code   RO           15    i.SystemClock_Config  main.o
    0x08004fb8   0x08004fb8   0x00000002   Code   RO         4005    i.SystemInit        system_stm32f1xx.o
    0x08004fba   0x08004fba   0x00000002   PAD
    0x08004fbc   0x08004fbc   0x0000000c   Code   RO          667    i.TIM1_UP_IRQHandler  stm32f1xx_it.o
    0x08004fc8   0x08004fc8   0x0000000c   Code   RO          668    i.TIM6_IRQHandler   stm32f1xx_it.o
    0x08004fd4   0x08004fd4   0x0000002c   Code   RO         4049    i.TIME_TASK         func.o
    0x08005000   0x08005000   0x00000090   Code   RO         2784    i.TIM_Base_SetConfig  stm32f1xx_hal_tim.o
    0x08005090   0x08005090   0x0000001a   Code   RO         2785    i.TIM_CCxChannelCmd  stm32f1xx_hal_tim.o
    0x080050aa   0x080050aa   0x00000014   Code   RO         2795    i.TIM_ETR_SetConfig  stm32f1xx_hal_tim.o
    0x080050be   0x080050be   0x00000010   Code   RO         2796    i.TIM_ITRx_SetConfig  stm32f1xx_hal_tim.o
    0x080050ce   0x080050ce   0x00000002   PAD
    0x080050d0   0x080050d0   0x00000068   Code   RO         2797    i.TIM_OC1_SetConfig  stm32f1xx_hal_tim.o
    0x08005138   0x08005138   0x00000074   Code   RO         2798    i.TIM_OC2_SetConfig  stm32f1xx_hal_tim.o
    0x080051ac   0x080051ac   0x00000070   Code   RO         2799    i.TIM_OC3_SetConfig  stm32f1xx_hal_tim.o
    0x0800521c   0x0800521c   0x00000054   Code   RO         2800    i.TIM_OC4_SetConfig  stm32f1xx_hal_tim.o
    0x08005270   0x08005270   0x00000022   Code   RO         2802    i.TIM_TI1_ConfigInputStage  stm32f1xx_hal_tim.o
    0x08005292   0x08005292   0x00000024   Code   RO         2804    i.TIM_TI2_ConfigInputStage  stm32f1xx_hal_tim.o
    0x080052b6   0x080052b6   0x00000010   Code   RO         3711    i.UART_DMAAbortOnError  stm32f1xx_hal_uart.o
    0x080052c6   0x080052c6   0x0000004a   Code   RO         3712    i.UART_DMAError     stm32f1xx_hal_uart.o
    0x08005310   0x08005310   0x0000003c   Code   RO         3713    i.UART_DMAReceiveCplt  stm32f1xx_hal_uart.o
    0x0800534c   0x0800534c   0x0000000a   Code   RO         3715    i.UART_DMARxHalfCplt  stm32f1xx_hal_uart.o
    0x08005356   0x08005356   0x0000001c   Code   RO         3721    i.UART_EndRxTransfer  stm32f1xx_hal_uart.o
    0x08005372   0x08005372   0x0000001a   Code   RO         3722    i.UART_EndTransmit_IT  stm32f1xx_hal_uart.o
    0x0800538c   0x0800538c   0x00000012   Code   RO         3723    i.UART_EndTxTransfer  stm32f1xx_hal_uart.o
    0x0800539e   0x0800539e   0x00000092   Code   RO         3724    i.UART_Receive_IT   stm32f1xx_hal_uart.o
    0x08005430   0x08005430   0x00000098   Code   RO         4700    i.UART_RxIdleCallback  com.o
    0x080054c8   0x080054c8   0x000000b8   Code   RO         3725    i.UART_SetConfig    stm32f1xx_hal_uart.o
    0x08005580   0x08005580   0x0000005e   Code   RO         3726    i.UART_Transmit_IT  stm32f1xx_hal_uart.o
    0x080055de   0x080055de   0x00000064   Code   RO         3727    i.UART_WaitOnFlagUntilTimeout  stm32f1xx_hal_uart.o
    0x08005642   0x08005642   0x00000002   PAD
    0x08005644   0x08005644   0x00000bc4   Code   RO         4050    i.UPDATA_SHOW       func.o
    0x08006208   0x08006208   0x00000018   Code   RO          669    i.USART1_IRQHandler  stm32f1xx_it.o
    0x08006220   0x08006220   0x0000005c   Code   RO         4051    i.USER_ADC_SetValue  func.o
    0x0800627c   0x0800627c   0x00000002   Code   RO          670    i.UsageFault_Handler  stm32f1xx_it.o
    0x0800627e   0x0800627e   0x00000002   PAD
    0x08006280   0x08006280   0x00000020   Code   RO         6455    i.__0printf         mc_w.l(printfa.o)
    0x080062a0   0x080062a0   0x00000028   Code   RO         6457    i.__0sprintf        mc_w.l(printfa.o)
    0x080062c8   0x080062c8   0x00000020   Code   RO         1631    i.__NVIC_SetPriority  stm32f1xx_hal_cortex.o
    0x080062e8   0x080062e8   0x0000000e   Code   RO         6547    i.__scatterload_copy  mc_w.l(handlers.o)
    0x080062f6   0x080062f6   0x00000002   Code   RO         6548    i.__scatterload_null  mc_w.l(handlers.o)
    0x080062f8   0x080062f8   0x0000000e   Code   RO         6549    i.__scatterload_zeroinit  mc_w.l(handlers.o)
    0x08006306   0x08006306   0x00000084   Code   RO         4337    i._draw_circle_8    gui.o
    0x0800638a   0x0800638a   0x00000002   PAD
    0x0800638c   0x0800638c   0x00000184   Code   RO         6462    i._fp_digits        mc_w.l(printfa.o)
    0x08006510   0x08006510   0x000006b4   Code   RO         6463    i._printf_core      mc_w.l(printfa.o)
    0x08006bc4   0x08006bc4   0x00000024   Code   RO         6464    i._printf_post_padding  mc_w.l(printfa.o)
    0x08006be8   0x08006be8   0x0000002e   Code   RO         6465    i._printf_pre_padding  mc_w.l(printfa.o)
    0x08006c16   0x08006c16   0x0000000a   Code   RO         6467    i._sputc            mc_w.l(printfa.o)
    0x08006c20   0x08006c20   0x0000000a   Code   RO         4618    i.delay_nns         my_iic.o
    0x08006c2a   0x08006c2a   0x00000018   Code   RO         4619    i.delay_nus         my_iic.o
    0x08006c42   0x08006c42   0x00000002   PAD
    0x08006c44   0x08006c44   0x00000018   Code   RO           16    i.fputc             main.o
    0x08006c5c   0x08006c5c   0x0000007c   Code   RO         4339    i.gui_circle        gui.o
    0x08006cd8   0x08006cd8   0x00000084   Code   RO           17    i.main              main.o
    0x08006d5c   0x08006d5c   0x00000024   Code   RO         5391    i.prvResetNextTaskUnblockTime  tasks.o
    0x08006d80   0x08006d80   0x00000026   Code   RO         5022    i.uxListRemove      list.o
    0x08006da6   0x08006da6   0x00000018   Code   RO         5026    i.vListInsertEnd    list.o
    0x08006dbe   0x08006dbe   0x00000002   PAD
    0x08006dc0   0x08006dc0   0x00000060   Code   RO         5416    i.vTaskSwitchContext  tasks.o
    0x08006e20   0x08006e20   0x000000cc   Code   RO         5426    i.xTaskIncrementTick  tasks.o
    0x08006eec   0x08006eec   0x00000010   Data   RO         4006    .constdata          system_stm32f1xx.o
    0x08006efc   0x08006efc   0x00000008   Data   RO         4007    .constdata          system_stm32f1xx.o
    0x08006f04   0x08006f04   0x00003078   Data   RO         4341    .constdata          gui.o
    0x08009f7c   0x08009f7c   0x00000020   Data   RO         6545    Region$$Table       anon$$obj.o


    Execution Region RW_IRAM1 (Exec base: 0x20000000, Load base: 0x08009f9c, Size: 0x00000fa0, Max: 0x00010000, ABSOLUTE)

    Exec Addr    Load Addr    Size         Type   Attr      Idx    E Section Name        Object

    0x20000000   0x08009f9c   0x00000002   Data   RW           21    .data               main.o
    0x20000002   0x08009f9e   0x00000002   PAD
    0x20000004   0x08009fa0   0x0000000c   Data   RW         1163    .data               stm32f1xx_hal.o
    0x20000010   0x08009fac   0x00000004   Data   RW         4008    .data               system_stm32f1xx.o
    0x20000014   0x08009fb0   0x0000000e   Data   RW         4053    .data               func.o
    0x20000022   0x08009fbe   0x00000002   Data   RW         4155    .data               lcd.o
    0x20000024   0x08009fc0   0x00000002   Data   RW         4156    .data               lcd.o
    0x20000026   0x08009fc2   0x00000002   Data   RW         4563    .data               sc8813.o
    0x20000028   0x08009fc4   0x00000001   Data   RW         4702    .data               com.o
    0x20000029   0x08009fc5   0x00000003   PAD
    0x2000002c   0x08009fc8   0x00000004   Data   RW         4772    .data               led.o
    0x20000030   0x08009fcc   0x0000003c   Data   RW         5435    .data               tasks.o
    0x2000006c   0x0800a008   0x00000004   Data   RW         6525    .data               mc_w.l(stdout.o)
    0x20000070        -       0x00000074   Zero   RW          372    .bss                adc.o
    0x200000e4        -       0x00000014   Zero   RW          414    .bss                dac.o
    0x200000f8        -       0x00000058   Zero   RW          480    .bss                spi.o
    0x20000150        -       0x00000168   Zero   RW          531    .bss                tim.o
    0x200002b8        -       0x000000c8   Zero   RW          618    .bss                usart.o
    0x20000380        -       0x00000048   Zero   RW          790    .bss                stm32f1xx_hal_timebase_tim.o
    0x200003c8        -       0x000003d0   Zero   RW         4052    .bss                func.o
    0x20000798        -       0x00000010   Zero   RW         4154    .bss                lcd.o
    0x200007a8        -       0x00000303   Zero   RW         4701    .bss                com.o
    0x20000aab   0x0800a00c   0x00000001   PAD
    0x20000aac        -       0x000000f0   Zero   RW         5434    .bss                tasks.o
    0x20000b9c   0x0800a00c   0x00000004   PAD
    0x20000ba0        -       0x00000400   Zero   RW            1    STACK               startup_stm32f103xe.o


==============================================================================

Image component sizes


      Code (inc. data)   RO Data    RW Data    ZI Data      Debug   Object Name

       288         38          0          0        116       1851   adc.o
       562        190          0          1        771       5866   com.o
       164         22          0          0         20       1659   dac.o
        76          4          0          0          0        786   dma.o
         0          0          0          0          0      16800   event_groups.o
      4776        294          0         14        976       9409   func.o
       400         28          0          0          0       1095   gpio.o
      1476         58      12408          0          0       7410   gui.o
       262          0          0          0          0       4281   ina226.o
      1046         88          0          4         16      10178   lcd.o
       100         12          0          4          0       1462   led.o
        62          0          0          0          0       1716   list.o
       298         48          0          2          0     533517   main.o
       674         42          0          0          0       5606   my_iic.o
       194         18          0          0          0       3958   port.o
       238          6          0          2          0       3646   sc8813.o
       184         26          0          0         88       1717   spi.o
        36          8        304          0       1024        824   startup_stm32f103xe.o
       100         18          0         12          0       5978   stm32f1xx_hal.o
      1154         56          0          0          0       8774   stm32f1xx_hal_adc.o
       228          6          0          0          0       1514   stm32f1xx_hal_adc_ex.o
       158         14          0          0          0      28370   stm32f1xx_hal_cortex.o
       246          0          0          0          0       3482   stm32f1xx_hal_dac.o
      1366         52          0          0          0       5554   stm32f1xx_hal_dma.o
       584         46          0          0          0       4174   stm32f1xx_hal_gpio.o
        72         10          0          0          0        902   stm32f1xx_hal_msp.o
      1528        114          0          0          0       7457   stm32f1xx_hal_rcc.o
       508         46          0          0          0       2829   stm32f1xx_hal_rcc_ex.o
       798          4          0          0          0       4342   stm32f1xx_hal_spi.o
      2590        108          0          0          0      20991   stm32f1xx_hal_tim.o
       128         22          0          0          0       2521   stm32f1xx_hal_tim_ex.o
       116         18          0          0         72       1491   stm32f1xx_hal_timebase_tim.o
      1574         24          0          0          0      14615   stm32f1xx_hal_uart.o
       148         36          0          0          0       6405   stm32f1xx_it.o
         2          0         24          4          0       1155   system_stm32f1xx.o
       336         24          0         60        240       6609   tasks.o
      1088        102          0          0        360       6471   tim.o
       276         30          0          0        200       1888   usart.o

    ----------------------------------------------------------------------
     23872       1612      12768        108       3888     747303   Object Totals
         0          0         32          0          0          0   (incl. Generated)
        36          0          0          5          5          0   (incl. Padding)

    ----------------------------------------------------------------------

      Code (inc. data)   RO Data    RW Data    ZI Data      Debug   Library Member Name

         0          0          0          0          0          0   entry.o
         0          0          0          0          0          0   entry10a.o
         0          0          0          0          0          0   entry11a.o
         4          0          0          0          0          0   entry12b.o
         8          4          0          0          0          0   entry2.o
         4          0          0          0          0          0   entry5.o
         0          0          0          0          0          0   entry7b.o
         0          0          0          0          0          0   entry8b.o
         8          4          0          0          0          0   entry9a.o
        30          0          0          0          0          0   handlers.o
        36          8          0          0          0         68   init.o
         0          0          0          0          0          0   iusefp.o
        30          0          0          0          0         68   llshl.o
        36          0          0          0          0         68   llsshr.o
        32          0          0          0          0         68   llushr.o
        36          0          0          0          0        108   memseta.o
      2268         96          0          0          0        616   printfa.o
         0          0          0          4          0          0   stdout.o
        44          0          0          0          0         80   uidiv.o
        98          0          0          0          0         92   uldiv.o
        48          0          0          0          0         68   cdrcmple.o
       334          0          0          0          0        148   dadd.o
       222          0          0          0          0        100   ddiv.o
       186          0          0          0          0        176   depilogue.o
        50          0          0          0          0         76   dfixui.o
        48          0          0          0          0         68   dfixul.o
       228          0          0          0          0         96   dmul.o
        46          0          0          0          0         80   dscalb.o
        38          0          0          0          0         68   f2d.o
       124          0          0          0          0         88   fdiv.o
       110          0          0          0          0        168   fepilogue.o
        40          0          0          0          0         68   ffixui.o
        10          0          0          0          0         68   ffltui.o
       100          0          0          0          0         76   fmul.o

    ----------------------------------------------------------------------
      4220        112          0          4          0       2516   Library Totals
         2          0          0          0          0          0   (incl. Padding)

    ----------------------------------------------------------------------

      Code (inc. data)   RO Data    RW Data    ZI Data      Debug   Library Name

      2634        112          0          4          0       1168   mc_w.l
      1584          0          0          0          0       1348   mf_w.l

    ----------------------------------------------------------------------
      4220        112          0          4          0       2516   Library Totals

    ----------------------------------------------------------------------

==============================================================================


      Code (inc. data)   RO Data    RW Data    ZI Data      Debug   

     28092       1724      12768        112       3888     738219   Grand Totals
     28092       1724      12768        112       3888     738219   ELF Image Totals
     28092       1724      12768        112          0          0   ROM Totals

==============================================================================

    Total RO  Size (Code + RO Data)                40860 (  39.90kB)
    Total RW  Size (RW Data + ZI Data)              4000 (   3.91kB)
    Total ROM Size (Code + RO Data + RW Data)      40972 (  40.01kB)

==============================================================================

